{
  "_format": "hh-sol-artifact-1",
  "contractName": "LinearVestingNFT",
  "sourceName": "contracts/reference/LinearVestingNFT.sol",
  "abi": [
    {
      "inputs": [
        {
          "internalType": "string",
          "name": "name",
          "type": "string"
        },
        {
          "internalType": "string",
          "name": "symbol",
          "type": "string"
        }
      ],
      "stateMutability": "nonpayable",
      "type": "constructor"
    },
    {
      "anonymous": false,
      "inputs": [
        {
          "indexed": true,
          "internalType": "address",
          "name": "owner",
          "type": "address"
        },
        {
          "indexed": true,
          "internalType": "address",
          "name": "approved",
          "type": "address"
        },
        {
          "indexed": true,
          "internalType": "uint256",
          "name": "tokenId",
          "type": "uint256"
        }
      ],
      "name": "Approval",
      "type": "event"
    },
    {
      "anonymous": false,
      "inputs": [
        {
          "indexed": true,
          "internalType": "address",
          "name": "owner",
          "type": "address"
        },
        {
          "indexed": true,
          "internalType": "address",
          "name": "operator",
          "type": "address"
        },
        {
          "indexed": false,
          "internalType": "bool",
          "name": "approved",
          "type": "bool"
        }
      ],
      "name": "ApprovalForAll",
      "type": "event"
    },
    {
      "anonymous": false,
      "inputs": [
        {
          "indexed": true,
          "internalType": "uint256",
          "name": "tokenId",
          "type": "uint256"
        },
        {
          "indexed": true,
          "internalType": "address",
          "name": "recipient",
          "type": "address"
        },
        {
          "indexed": false,
          "internalType": "uint256",
          "name": "_claimAmount",
          "type": "uint256"
        }
      ],
      "name": "PayoutClaimed",
      "type": "event"
    },
    {
      "anonymous": false,
      "inputs": [
        {
          "indexed": true,
          "internalType": "address",
          "name": "from",
          "type": "address"
        },
        {
          "indexed": true,
          "internalType": "address",
          "name": "to",
          "type": "address"
        },
        {
          "indexed": true,
          "internalType": "uint256",
          "name": "tokenId",
          "type": "uint256"
        }
      ],
      "name": "Transfer",
      "type": "event"
    },
    {
      "inputs": [
        {
          "internalType": "address",
          "name": "to",
          "type": "address"
        },
        {
          "internalType": "uint256",
          "name": "tokenId",
          "type": "uint256"
        }
      ],
      "name": "approve",
      "outputs": [],
      "stateMutability": "nonpayable",
      "type": "function"
    },
    {
      "inputs": [
        {
          "internalType": "address",
          "name": "owner",
          "type": "address"
        }
      ],
      "name": "balanceOf",
      "outputs": [
        {
          "internalType": "uint256",
          "name": "",
          "type": "uint256"
        }
      ],
      "stateMutability": "view",
      "type": "function"
    },
    {
      "inputs": [
        {
          "internalType": "uint256",
          "name": "tokenId",
          "type": "uint256"
        }
      ],
      "name": "claim",
      "outputs": [
        {
          "internalType": "uint256",
          "name": "amountClaimed",
          "type": "uint256"
        }
      ],
      "stateMutability": "nonpayable",
      "type": "function"
    },
    {
      "inputs": [
        {
          "internalType": "uint256",
          "name": "tokenId",
          "type": "uint256"
        }
      ],
      "name": "claimablePayout",
      "outputs": [
        {
          "internalType": "uint256",
          "name": "payout",
          "type": "uint256"
        }
      ],
      "stateMutability": "view",
      "type": "function"
    },
    {
      "inputs": [
        {
          "internalType": "address",
          "name": "to",
          "type": "address"
        },
        {
          "internalType": "uint256",
          "name": "amount",
          "type": "uint256"
        },
        {
          "internalType": "uint128",
          "name": "startTime",
          "type": "uint128"
        },
        {
          "internalType": "uint128",
          "name": "duration",
          "type": "uint128"
        },
        {
          "internalType": "uint128",
          "name": "cliff",
          "type": "uint128"
        },
        {
          "internalType": "contract IERC20",
          "name": "token",
          "type": "address"
        }
      ],
      "name": "create",
      "outputs": [],
      "stateMutability": "nonpayable",
      "type": "function"
    },
    {
      "inputs": [
        {
          "internalType": "uint256",
          "name": "tokenId",
          "type": "uint256"
        }
      ],
      "name": "getApproved",
      "outputs": [
        {
          "internalType": "address",
          "name": "",
          "type": "address"
        }
      ],
      "stateMutability": "view",
      "type": "function"
    },
    {
      "inputs": [
        {
          "internalType": "address",
          "name": "owner",
          "type": "address"
        },
        {
          "internalType": "address",
          "name": "operator",
          "type": "address"
        }
      ],
      "name": "isApprovedForAll",
      "outputs": [
        {
          "internalType": "bool",
          "name": "",
          "type": "bool"
        }
      ],
      "stateMutability": "view",
      "type": "function"
    },
    {
      "inputs": [],
      "name": "name",
      "outputs": [
        {
          "internalType": "string",
          "name": "",
          "type": "string"
        }
      ],
      "stateMutability": "view",
      "type": "function"
    },
    {
      "inputs": [
        {
          "internalType": "uint256",
          "name": "tokenId",
          "type": "uint256"
        }
      ],
      "name": "ownerOf",
      "outputs": [
        {
          "internalType": "address",
          "name": "",
          "type": "address"
        }
      ],
      "stateMutability": "view",
      "type": "function"
    },
    {
      "inputs": [
        {
          "internalType": "uint256",
          "name": "tokenId",
          "type": "uint256"
        }
      ],
      "name": "payoutToken",
      "outputs": [
        {
          "internalType": "address",
          "name": "token",
          "type": "address"
        }
      ],
      "stateMutability": "view",
      "type": "function"
    },
    {
      "inputs": [
        {
          "internalType": "address",
          "name": "from",
          "type": "address"
        },
        {
          "internalType": "address",
          "name": "to",
          "type": "address"
        },
        {
          "internalType": "uint256",
          "name": "tokenId",
          "type": "uint256"
        }
      ],
      "name": "safeTransferFrom",
      "outputs": [],
      "stateMutability": "nonpayable",
      "type": "function"
    },
    {
      "inputs": [
        {
          "internalType": "address",
          "name": "from",
          "type": "address"
        },
        {
          "internalType": "address",
          "name": "to",
          "type": "address"
        },
        {
          "internalType": "uint256",
          "name": "tokenId",
          "type": "uint256"
        },
        {
          "internalType": "bytes",
          "name": "data",
          "type": "bytes"
        }
      ],
      "name": "safeTransferFrom",
      "outputs": [],
      "stateMutability": "nonpayable",
      "type": "function"
    },
    {
      "inputs": [
        {
          "internalType": "address",
          "name": "operator",
          "type": "address"
        },
        {
          "internalType": "bool",
          "name": "approved",
          "type": "bool"
        }
      ],
      "name": "setApprovalForAll",
      "outputs": [],
      "stateMutability": "nonpayable",
      "type": "function"
    },
    {
      "inputs": [
        {
          "internalType": "bytes4",
          "name": "interfaceId",
          "type": "bytes4"
        }
      ],
      "name": "supportsInterface",
      "outputs": [
        {
          "internalType": "bool",
          "name": "supported",
          "type": "bool"
        }
      ],
      "stateMutability": "view",
      "type": "function"
    },
    {
      "inputs": [],
      "name": "symbol",
      "outputs": [
        {
          "internalType": "string",
          "name": "",
          "type": "string"
        }
      ],
      "stateMutability": "view",
      "type": "function"
    },
    {
      "inputs": [
        {
          "internalType": "uint256",
          "name": "tokenId",
          "type": "uint256"
        }
      ],
      "name": "tokenURI",
      "outputs": [
        {
          "internalType": "string",
          "name": "",
          "type": "string"
        }
      ],
      "stateMutability": "view",
      "type": "function"
    },
    {
      "inputs": [
        {
          "internalType": "address",
          "name": "from",
          "type": "address"
        },
        {
          "internalType": "address",
          "name": "to",
          "type": "address"
        },
        {
          "internalType": "uint256",
          "name": "tokenId",
          "type": "uint256"
        }
      ],
      "name": "transferFrom",
      "outputs": [],
      "stateMutability": "nonpayable",
      "type": "function"
    },
    {
      "inputs": [
        {
          "internalType": "uint256",
          "name": "",
          "type": "uint256"
        }
      ],
      "name": "vestDetails",
      "outputs": [
        {
          "internalType": "contract IERC20",
          "name": "payoutToken",
          "type": "address"
        },
        {
          "internalType": "uint256",
          "name": "payout",
          "type": "uint256"
        },
        {
          "internalType": "uint128",
          "name": "startTime",
          "type": "uint128"
        },
        {
          "internalType": "uint128",
          "name": "endTime",
          "type": "uint128"
        },
        {
          "internalType": "uint128",
          "name": "cliff",
          "type": "uint128"
        }
      ],
      "stateMutability": "view",
      "type": "function"
    },
    {
      "inputs": [
        {
          "internalType": "uint256",
          "name": "tokenId",
          "type": "uint256"
        }
      ],
      "name": "vestedPayout",
      "outputs": [
        {
          "internalType": "uint256",
          "name": "payout",
          "type": "uint256"
        }
      ],
      "stateMutability": "view",
      "type": "function"
    },
    {
      "inputs": [
        {
          "internalType": "uint256",
          "name": "tokenId",
          "type": "uint256"
        },
        {
          "internalType": "uint256",
          "name": "timestamp",
          "type": "uint256"
        }
      ],
      "name": "vestedPayoutAtTime",
      "outputs": [
        {
          "internalType": "uint256",
          "name": "payout",
          "type": "uint256"
        }
      ],
      "stateMutability": "view",
      "type": "function"
    },
    {
      "inputs": [
        {
          "internalType": "uint256",
          "name": "tokenId",
          "type": "uint256"
        }
      ],
      "name": "vestingPayout",
      "outputs": [
        {
          "internalType": "uint256",
          "name": "payout",
          "type": "uint256"
        }
      ],
      "stateMutability": "view",
      "type": "function"
    },
    {
      "inputs": [
        {
          "internalType": "uint256",
          "name": "tokenId",
          "type": "uint256"
        }
      ],
      "name": "vestingPeriod",
      "outputs": [
        {
          "internalType": "uint256",
          "name": "vestingStart",
          "type": "uint256"
        },
        {
          "internalType": "uint256",
          "name": "vestingEnd",
          "type": "uint256"
        }
      ],
      "stateMutability": "view",
      "type": "function"
    }
  ],
  "bytecode": "0x60806040523480156200001157600080fd5b5060405162004141380380620041418339818101604052810190620000379190620001fa565b818181600090816200004a9190620004ca565b5080600190816200005c9190620004ca565b5050505050620005b1565b6000604051905090565b600080fd5b600080fd5b600080fd5b600080fd5b6000601f19601f8301169050919050565b7f4e487b7100000000000000000000000000000000000000000000000000000000600052604160045260246000fd5b620000d08262000085565b810181811067ffffffffffffffff82111715620000f257620000f162000096565b5b80604052505050565b60006200010762000067565b9050620001158282620000c5565b919050565b600067ffffffffffffffff82111562000138576200013762000096565b5b620001438262000085565b9050602081019050919050565b60005b838110156200017057808201518184015260208101905062000153565b60008484015250505050565b6000620001936200018d846200011a565b620000fb565b905082815260208101848484011115620001b257620001b162000080565b5b620001bf84828562000150565b509392505050565b600082601f830112620001df57620001de6200007b565b5b8151620001f18482602086016200017c565b91505092915050565b6000806040838503121562000214576200021362000071565b5b600083015167ffffffffffffffff81111562000235576200023462000076565b5b6200024385828601620001c7565b925050602083015167ffffffffffffffff81111562000267576200026662000076565b5b6200027585828601620001c7565b9150509250929050565b600081519050919050565b7f4e487b7100000000000000000000000000000000000000000000000000000000600052602260045260246000fd5b60006002820490506001821680620002d257607f821691505b602082108103620002e857620002e76200028a565b5b50919050565b60008190508160005260206000209050919050565b60006020601f8301049050919050565b600082821b905092915050565b600060088302620003527fffffffffffffffffffffffffffffffffffffffffffffffffffffffffffffffff8262000313565b6200035e868362000313565b95508019841693508086168417925050509392505050565b6000819050919050565b6000819050919050565b6000620003ab620003a56200039f8462000376565b62000380565b62000376565b9050919050565b6000819050919050565b620003c7836200038a565b620003df620003d682620003b2565b84845462000320565b825550505050565b600090565b620003f6620003e7565b62000403818484620003bc565b505050565b5b818110156200042b576200041f600082620003ec565b60018101905062000409565b5050565b601f8211156200047a576200044481620002ee565b6200044f8462000303565b810160208510156200045f578190505b620004776200046e8562000303565b83018262000408565b50505b505050565b600082821c905092915050565b60006200049f600019846008026200047f565b1980831691505092915050565b6000620004ba83836200048c565b9150826002028217905092915050565b620004d5826200027f565b67ffffffffffffffff811115620004f157620004f062000096565b5b620004fd8254620002b9565b6200050a8282856200042f565b600060209050601f8311600181146200054257600084156200052d578287015190505b620005398582620004ac565b865550620005a9565b601f1984166200055286620002ee565b60005b828110156200057c5784890151825560018201915060208501945060208101905062000555565b868310156200059c578489015162000598601f8916826200048c565b8355505b6001600288020188555050505b505050505050565b613b8080620005c16000396000f3fe608060405234801561001057600080fd5b50600436106101425760003560e01c806381d0526d116100b8578063b88d4fde1161007c578063b88d4fde146103d8578063c196f42f146103f4578063c87b56dd14610410578063d744515f14610440578063db900b9d14610470578063e985e9c5146104a057610142565b806381d0526d1461030e5780638b9cb90b1461033e57806395d89b411461036e5780639e0bd8081461038c578063a22cb465146103bc57610142565b806323b872dd1161010a57806323b872dd14610215578063379607f51461023157806342842e0e14610261578063576561d21461027d5780636352211e146102ae57806370a08231146102de57610142565b806301ffc9a71461014757806303101bfd1461017757806306fdde03146101ab578063081812fc146101c9578063095ea7b3146101f9575b600080fd5b610161600480360381019061015c9190612516565b6104d0565b60405161016e919061255e565b60405180910390f35b610191600480360381019061018c91906125af565b61054a565b6040516101a2959493929190612695565b60405180910390f35b6101b36105f4565b6040516101c09190612778565b60405180910390f35b6101e360048036038101906101de91906125af565b610686565b6040516101f091906127bb565b60405180910390f35b610213600480360381019061020e9190612802565b6106cc565b005b61022f600480360381019061022a9190612842565b6107e3565b005b61024b600480360381019061024691906125af565b610843565b6040516102589190612895565b60405180910390f35b61027b60048036038101906102769190612842565b610a04565b005b610297600480360381019061029291906125af565b610a24565b6040516102a59291906128b0565b60405180910390f35b6102c860048036038101906102c391906125af565b610a8c565b6040516102d591906127bb565b60405180910390f35b6102f860048036038101906102f391906128d9565b610b3d565b6040516103059190612895565b60405180910390f35b610328600480360381019061032391906125af565b610bf4565b6040516103359190612895565b60405180910390f35b610358600480360381019061035391906125af565b610c63565b60405161036591906127bb565b60405180910390f35b610376610cbf565b6040516103839190612778565b60405180910390f35b6103a660048036038101906103a191906125af565b610d51565b6040516103b39190612895565b60405180910390f35b6103d660048036038101906103d19190612932565b610dcb565b005b6103f260048036038101906103ed9190612aa7565b610de1565b005b61040e60048036038101906104099190612b94565b610e43565b005b61042a600480360381019061042591906125af565b611182565b6040516104379190612778565b60405180910390f35b61045a60048036038101906104559190612c21565b6111ea565b6040516104679190612895565b60405180910390f35b61048a600480360381019061048591906125af565b6112c5565b6040516104979190612895565b60405180910390f35b6104ba60048036038101906104b59190612c61565b6112d8565b6040516104c7919061255e565b60405180910390f35b60007ff8600f8b000000000000000000000000000000000000000000000000000000007bffffffffffffffffffffffffffffffffffffffffffffffffffffffff1916827bffffffffffffffffffffffffffffffffffffffffffffffffffffffff1916148061054357506105428261136c565b5b9050919050565b60076020528060005260406000206000915090508060000160009054906101000a900473ffffffffffffffffffffffffffffffffffffffff16908060010154908060020160009054906101000a90046fffffffffffffffffffffffffffffffff16908060020160109054906101000a90046fffffffffffffffffffffffffffffffff16908060030160009054906101000a90046fffffffffffffffffffffffffffffffff16905085565b60606000805461060390612cd0565b80601f016020809104026020016040519081016040528092919081815260200182805461062f90612cd0565b801561067c5780601f106106515761010080835404028352916020019161067c565b820191906000526020600020905b81548152906001019060200180831161065f57829003601f168201915b5050505050905090565b60006106918261144e565b6004600083815260200190815260200160002060009054906101000a900473ffffffffffffffffffffffffffffffffffffffff169050919050565b60006106d782610a8c565b90508073ffffffffffffffffffffffffffffffffffffffff168373ffffffffffffffffffffffffffffffffffffffff1603610747576040517f08c379a000000000000000000000000000000000000000000000000000000000815260040161073e90612d73565b60405180910390fd5b8073ffffffffffffffffffffffffffffffffffffffff16610766611499565b73ffffffffffffffffffffffffffffffffffffffff16148061079557506107948161078f611499565b6112d8565b5b6107d4576040517f08c379a00000000000000000000000000000000000000000000000000000000081526004016107cb90612e05565b60405180910390fd5b6107de83836114a1565b505050565b6107f46107ee611499565b8261155a565b610833576040517f08c379a000000000000000000000000000000000000000000000000000000000815260040161082a90612e97565b60405180910390fd5b61083e8383836115ef565b505050565b60008161084f81611855565b61088e576040517f08c379a000000000000000000000000000000000000000000000000000000000815260040161088590612f03565b60405180910390fd5b3373ffffffffffffffffffffffffffffffffffffffff166108ae84610a8c565b73ffffffffffffffffffffffffffffffffffffffff1614610904576040517f08c379a00000000000000000000000000000000000000000000000000000000081526004016108fb90612f6f565b60405180910390fd5b61090d83610d51565b915060008211610952576040517f08c379a000000000000000000000000000000000000000000000000000000000815260040161094990612fdb565b60405180910390fd5b3373ffffffffffffffffffffffffffffffffffffffff16837fe97cee5a4c0549d3fdc81e322b718ddf0aeb3418ec87dce4f9a7fb28d117c312846040516109999190612895565b60405180910390a3816006600085815260200190815260200160002060008282546109c4919061302a565b925050819055506109fe33836109d986610c63565b73ffffffffffffffffffffffffffffffffffffffff166118c19092919063ffffffff16565b50919050565b610a1f83838360405180602001604052806000815250610de1565b505050565b60008082610a3181611855565b610a70576040517f08c379a0000000000000000000000000000000000000000000000000000000008152600401610a6790612f03565b60405180910390fd5b610a7984611947565b610a8285611995565b9250925050915091565b6000806002600084815260200190815260200160002060009054906101000a900473ffffffffffffffffffffffffffffffffffffffff169050600073ffffffffffffffffffffffffffffffffffffffff168173ffffffffffffffffffffffffffffffffffffffff1603610b34576040517f08c379a0000000000000000000000000000000000000000000000000000000008152600401610b2b906130aa565b60405180910390fd5b80915050919050565b60008073ffffffffffffffffffffffffffffffffffffffff168273ffffffffffffffffffffffffffffffffffffffff1603610bad576040517f08c379a0000000000000000000000000000000000000000000000000000000008152600401610ba49061313c565b60405180910390fd5b600360008373ffffffffffffffffffffffffffffffffffffffff1673ffffffffffffffffffffffffffffffffffffffff168152602001908152602001600020549050919050565b600081610c0081611855565b610c3f576040517f08c379a0000000000000000000000000000000000000000000000000000000008152600401610c3690612f03565b60405180910390fd5b610c48836112c5565b610c51846119e3565b610c5b919061315c565b915050919050565b600081610c6f81611855565b610cae576040517f08c379a0000000000000000000000000000000000000000000000000000000008152600401610ca590612f03565b60405180910390fd5b610cb783611a03565b915050919050565b606060018054610cce90612cd0565b80601f0160208091040260200160405190810160405280929190818152602001828054610cfa90612cd0565b8015610d475780601f10610d1c57610100808354040283529160200191610d47565b820191906000526020600020905b815481529060010190602001808311610d2a57829003601f168201915b5050505050905090565b600081610d5d81611855565b610d9c576040517f08c379a0000000000000000000000000000000000000000000000000000000008152600401610d9390612f03565b60405180910390fd5b6006600084815260200190815260200160002054610db9846112c5565b610dc3919061315c565b915050919050565b610ddd610dd6611499565b8383611a43565b5050565b610df2610dec611499565b8361155a565b610e31576040517f08c379a0000000000000000000000000000000000000000000000000000000008152600401610e2890612e97565b60405180910390fd5b610e3d84848484611baf565b50505050565b42846fffffffffffffffffffffffffffffffff161015610e98576040517f08c379a0000000000000000000000000000000000000000000000000000000008152600401610e8f906131dc565b60405180910390fd5b600073ffffffffffffffffffffffffffffffffffffffff168673ffffffffffffffffffffffffffffffffffffffff1603610f07576040517f08c379a0000000000000000000000000000000000000000000000000000000008152600401610efe90613248565b60405180910390fd5b826fffffffffffffffffffffffffffffffff16826fffffffffffffffffffffffffffffffff161115610f6e576040517f08c379a0000000000000000000000000000000000000000000000000000000008152600401610f65906132da565b60405180910390fd5b600060085490506040518060a001604052808373ffffffffffffffffffffffffffffffffffffffff168152602001878152602001866fffffffffffffffffffffffffffffffff1681526020018587610fc691906132fa565b6fffffffffffffffffffffffffffffffff1681526020018487610fe991906132fa565b6fffffffffffffffffffffffffffffffff168152506007600083815260200190815260200160002060008201518160000160006101000a81548173ffffffffffffffffffffffffffffffffffffffff021916908373ffffffffffffffffffffffffffffffffffffffff1602179055506020820151816001015560408201518160020160006101000a8154816fffffffffffffffffffffffffffffffff02191690836fffffffffffffffffffffffffffffffff16021790555060608201518160020160106101000a8154816fffffffffffffffffffffffffffffffff02191690836fffffffffffffffffffffffffffffffff16021790555060808201518160030160006101000a8154816fffffffffffffffffffffffffffffffff02191690836fffffffffffffffffffffffffffffffff160217905550905050600860008154809291906111359061333e565b91905055506111448782611c0b565b61117933308861115385610c63565b73ffffffffffffffffffffffffffffffffffffffff16611de4909392919063ffffffff16565b50505050505050565b606061118d8261144e565b6000611197611e6d565b905060008151116111b757604051806020016040528060008152506111e2565b806111c184611e84565b6040516020016111d29291906133c2565b6040516020818303038152906040525b915050919050565b6000826111f681611855565b611235576040517f08c379a000000000000000000000000000000000000000000000000000000000815260040161122c90612f03565b60405180910390fd5b61123e84611fe4565b83101561124e57600091506112be565b61125784611995565b83111561126e57611267846119e3565b91506112be565b61127784611947565b61128085611995565b61128a919061315c565b61129385611947565b8461129e919061315c565b6112a7866119e3565b6112b191906133e6565b6112bb9190613457565b91505b5092915050565b60006112d182426111ea565b9050919050565b6000600560008473ffffffffffffffffffffffffffffffffffffffff1673ffffffffffffffffffffffffffffffffffffffff16815260200190815260200160002060008373ffffffffffffffffffffffffffffffffffffffff1673ffffffffffffffffffffffffffffffffffffffff16815260200190815260200160002060009054906101000a900460ff16905092915050565b60007f80ac58cd000000000000000000000000000000000000000000000000000000007bffffffffffffffffffffffffffffffffffffffffffffffffffffffff1916827bffffffffffffffffffffffffffffffffffffffffffffffffffffffff1916148061143757507f5b5e139f000000000000000000000000000000000000000000000000000000007bffffffffffffffffffffffffffffffffffffffffffffffffffffffff1916827bffffffffffffffffffffffffffffffffffffffffffffffffffffffff1916145b80611447575061144682612032565b5b9050919050565b61145781611855565b611496576040517f08c379a000000000000000000000000000000000000000000000000000000000815260040161148d906130aa565b60405180910390fd5b50565b600033905090565b816004600083815260200190815260200160002060006101000a81548173ffffffffffffffffffffffffffffffffffffffff021916908373ffffffffffffffffffffffffffffffffffffffff160217905550808273ffffffffffffffffffffffffffffffffffffffff1661151483610a8c565b73ffffffffffffffffffffffffffffffffffffffff167f8c5be1e5ebec7d5bd14f71427d1e84f3dd0314c0f7b2291e5b200ac8c7c3b92560405160405180910390a45050565b60008061156683610a8c565b90508073ffffffffffffffffffffffffffffffffffffffff168473ffffffffffffffffffffffffffffffffffffffff1614806115a857506115a781856112d8565b5b806115e657508373ffffffffffffffffffffffffffffffffffffffff166115ce84610686565b73ffffffffffffffffffffffffffffffffffffffff16145b91505092915050565b8273ffffffffffffffffffffffffffffffffffffffff1661160f82610a8c565b73ffffffffffffffffffffffffffffffffffffffff1614611665576040517f08c379a000000000000000000000000000000000000000000000000000000000815260040161165c906134fa565b60405180910390fd5b600073ffffffffffffffffffffffffffffffffffffffff168273ffffffffffffffffffffffffffffffffffffffff16036116d4576040517f08c379a00000000000000000000000000000000000000000000000000000000081526004016116cb9061358c565b60405180910390fd5b6116df83838361209c565b6116ea6000826114a1565b6001600360008573ffffffffffffffffffffffffffffffffffffffff1673ffffffffffffffffffffffffffffffffffffffff168152602001908152602001600020600082825461173a919061315c565b925050819055506001600360008473ffffffffffffffffffffffffffffffffffffffff1673ffffffffffffffffffffffffffffffffffffffff1681526020019081526020016000206000828254611791919061302a565b92505081905550816002600083815260200190815260200160002060006101000a81548173ffffffffffffffffffffffffffffffffffffffff021916908373ffffffffffffffffffffffffffffffffffffffff160217905550808273ffffffffffffffffffffffffffffffffffffffff168473ffffffffffffffffffffffffffffffffffffffff167fddf252ad1be2c89b69c2b068fc378daa952ba7f163c4a11628f55a4df523b3ef60405160405180910390a46118508383836120a1565b505050565b60008073ffffffffffffffffffffffffffffffffffffffff166002600084815260200190815260200160002060009054906101000a900473ffffffffffffffffffffffffffffffffffffffff1673ffffffffffffffffffffffffffffffffffffffff1614159050919050565b6119428363a9059cbb60e01b84846040516024016118e09291906135ac565b604051602081830303815290604052907bffffffffffffffffffffffffffffffffffffffffffffffffffffffff19166020820180517bffffffffffffffffffffffffffffffffffffffffffffffffffffffff83818316178352505050506120a6565b505050565b60006007600083815260200190815260200160002060020160009054906101000a90046fffffffffffffffffffffffffffffffff166fffffffffffffffffffffffffffffffff169050919050565b60006007600083815260200190815260200160002060020160109054906101000a90046fffffffffffffffffffffffffffffffff166fffffffffffffffffffffffffffffffff169050919050565b600060076000838152602001908152602001600020600101549050919050565b60006007600083815260200190815260200160002060000160009054906101000a900473ffffffffffffffffffffffffffffffffffffffff169050919050565b8173ffffffffffffffffffffffffffffffffffffffff168373ffffffffffffffffffffffffffffffffffffffff1603611ab1576040517f08c379a0000000000000000000000000000000000000000000000000000000008152600401611aa890613621565b60405180910390fd5b80600560008573ffffffffffffffffffffffffffffffffffffffff1673ffffffffffffffffffffffffffffffffffffffff16815260200190815260200160002060008473ffffffffffffffffffffffffffffffffffffffff1673ffffffffffffffffffffffffffffffffffffffff16815260200190815260200160002060006101000a81548160ff0219169083151502179055508173ffffffffffffffffffffffffffffffffffffffff168373ffffffffffffffffffffffffffffffffffffffff167f17307eab39ab6107e8899845ad3d59bd9653f200f220920489ca2b5937696c3183604051611ba2919061255e565b60405180910390a3505050565b611bba8484846115ef565b611bc68484848461216d565b611c05576040517f08c379a0000000000000000000000000000000000000000000000000000000008152600401611bfc906136b3565b60405180910390fd5b50505050565b600073ffffffffffffffffffffffffffffffffffffffff168273ffffffffffffffffffffffffffffffffffffffff1603611c7a576040517f08c379a0000000000000000000000000000000000000000000000000000000008152600401611c719061371f565b60405180910390fd5b611c8381611855565b15611cc3576040517f08c379a0000000000000000000000000000000000000000000000000000000008152600401611cba9061378b565b60405180910390fd5b611ccf6000838361209c565b6001600360008473ffffffffffffffffffffffffffffffffffffffff1673ffffffffffffffffffffffffffffffffffffffff1681526020019081526020016000206000828254611d1f919061302a565b92505081905550816002600083815260200190815260200160002060006101000a81548173ffffffffffffffffffffffffffffffffffffffff021916908373ffffffffffffffffffffffffffffffffffffffff160217905550808273ffffffffffffffffffffffffffffffffffffffff16600073ffffffffffffffffffffffffffffffffffffffff167fddf252ad1be2c89b69c2b068fc378daa952ba7f163c4a11628f55a4df523b3ef60405160405180910390a4611de0600083836120a1565b5050565b611e67846323b872dd60e01b858585604051602401611e05939291906137ab565b604051602081830303815290604052907bffffffffffffffffffffffffffffffffffffffffffffffffffffffff19166020820180517bffffffffffffffffffffffffffffffffffffffffffffffffffffffff83818316178352505050506120a6565b50505050565b606060405180602001604052806000815250905090565b606060008203611ecb576040518060400160405280600181526020017f30000000000000000000000000000000000000000000000000000000000000008152509050611fdf565b600082905060005b60008214611efd578080611ee69061333e565b915050600a82611ef69190613457565b9150611ed3565b60008167ffffffffffffffff811115611f1957611f1861297c565b5b6040519080825280601f01601f191660200182016040528015611f4b5781602001600182028036833780820191505090505b5090505b60008514611fd857600182611f64919061315c565b9150600a85611f7391906137e2565b6030611f7f919061302a565b60f81b818381518110611f9557611f94613813565b5b60200101907effffffffffffffffffffffffffffffffffffffffffffffffffffffffffffff1916908160001a905350600a85611fd19190613457565b9450611f4f565b8093505050505b919050565b60006007600083815260200190815260200160002060030160009054906101000a90046fffffffffffffffffffffffffffffffff166fffffffffffffffffffffffffffffffff169050919050565b60007f01ffc9a7000000000000000000000000000000000000000000000000000000007bffffffffffffffffffffffffffffffffffffffffffffffffffffffff1916827bffffffffffffffffffffffffffffffffffffffffffffffffffffffff1916149050919050565b505050565b505050565b6000612108826040518060400160405280602081526020017f5361666545524332303a206c6f772d6c6576656c2063616c6c206661696c65648152508573ffffffffffffffffffffffffffffffffffffffff166122f49092919063ffffffff16565b905060008151111561216857808060200190518101906121289190613857565b612167576040517f08c379a000000000000000000000000000000000000000000000000000000000815260040161215e906138f6565b60405180910390fd5b5b505050565b600061218e8473ffffffffffffffffffffffffffffffffffffffff1661230c565b156122e7578373ffffffffffffffffffffffffffffffffffffffff1663150b7a026121b7611499565b8786866040518563ffffffff1660e01b81526004016121d9949392919061396b565b6020604051808303816000875af192505050801561221557506040513d601f19601f8201168201806040525081019061221291906139cc565b60015b612297573d8060008114612245576040519150601f19603f3d011682016040523d82523d6000602084013e61224a565b606091505b50600081510361228f576040517f08c379a0000000000000000000000000000000000000000000000000000000008152600401612286906136b3565b60405180910390fd5b805181602001fd5b63150b7a0260e01b7bffffffffffffffffffffffffffffffffffffffffffffffffffffffff1916817bffffffffffffffffffffffffffffffffffffffffffffffffffffffff1916149150506122ec565b600190505b949350505050565b6060612303848460008561232f565b90509392505050565b6000808273ffffffffffffffffffffffffffffffffffffffff163b119050919050565b606082471015612374576040517f08c379a000000000000000000000000000000000000000000000000000000000815260040161236b90613a6b565b60405180910390fd5b61237d8561230c565b6123bc576040517f08c379a00000000000000000000000000000000000000000000000000000000081526004016123b390613ad7565b60405180910390fd5b6000808673ffffffffffffffffffffffffffffffffffffffff1685876040516123e59190613b33565b60006040518083038185875af1925050503d8060008114612422576040519150601f19603f3d011682016040523d82523d6000602084013e612427565b606091505b5091509150612437828286612443565b92505050949350505050565b60608315612453578290506124a3565b6000835111156124665782518084602001fd5b816040517f08c379a000000000000000000000000000000000000000000000000000000000815260040161249a9190612778565b60405180910390fd5b9392505050565b6000604051905090565b600080fd5b600080fd5b60007fffffffff0000000000000000000000000000000000000000000000000000000082169050919050565b6124f3816124be565b81146124fe57600080fd5b50565b600081359050612510816124ea565b92915050565b60006020828403121561252c5761252b6124b4565b5b600061253a84828501612501565b91505092915050565b60008115159050919050565b61255881612543565b82525050565b6000602082019050612573600083018461254f565b92915050565b6000819050919050565b61258c81612579565b811461259757600080fd5b50565b6000813590506125a981612583565b92915050565b6000602082840312156125c5576125c46124b4565b5b60006125d38482850161259a565b91505092915050565b600073ffffffffffffffffffffffffffffffffffffffff82169050919050565b6000819050919050565b600061262161261c612617846125dc565b6125fc565b6125dc565b9050919050565b600061263382612606565b9050919050565b600061264582612628565b9050919050565b6126558161263a565b82525050565b61266481612579565b82525050565b60006fffffffffffffffffffffffffffffffff82169050919050565b61268f8161266a565b82525050565b600060a0820190506126aa600083018861264c565b6126b7602083018761265b565b6126c46040830186612686565b6126d16060830185612686565b6126de6080830184612686565b9695505050505050565b600081519050919050565b600082825260208201905092915050565b60005b83811015612722578082015181840152602081019050612707565b60008484015250505050565b6000601f19601f8301169050919050565b600061274a826126e8565b61275481856126f3565b9350612764818560208601612704565b61276d8161272e565b840191505092915050565b60006020820190508181036000830152612792818461273f565b905092915050565b60006127a5826125dc565b9050919050565b6127b58161279a565b82525050565b60006020820190506127d060008301846127ac565b92915050565b6127df8161279a565b81146127ea57600080fd5b50565b6000813590506127fc816127d6565b92915050565b60008060408385031215612819576128186124b4565b5b6000612827858286016127ed565b92505060206128388582860161259a565b9150509250929050565b60008060006060848603121561285b5761285a6124b4565b5b6000612869868287016127ed565b935050602061287a868287016127ed565b925050604061288b8682870161259a565b9150509250925092565b60006020820190506128aa600083018461265b565b92915050565b60006040820190506128c5600083018561265b565b6128d2602083018461265b565b9392505050565b6000602082840312156128ef576128ee6124b4565b5b60006128fd848285016127ed565b91505092915050565b61290f81612543565b811461291a57600080fd5b50565b60008135905061292c81612906565b92915050565b60008060408385031215612949576129486124b4565b5b6000612957858286016127ed565b92505060206129688582860161291d565b9150509250929050565b600080fd5b600080fd5b7f4e487b7100000000000000000000000000000000000000000000000000000000600052604160045260246000fd5b6129b48261272e565b810181811067ffffffffffffffff821117156129d3576129d261297c565b5b80604052505050565b60006129e66124aa565b90506129f282826129ab565b919050565b600067ffffffffffffffff821115612a1257612a1161297c565b5b612a1b8261272e565b9050602081019050919050565b82818337600083830152505050565b6000612a4a612a45846129f7565b6129dc565b905082815260208101848484011115612a6657612a65612977565b5b612a71848285612a28565b509392505050565b600082601f830112612a8e57612a8d612972565b5b8135612a9e848260208601612a37565b91505092915050565b60008060008060808587031215612ac157612ac06124b4565b5b6000612acf878288016127ed565b9450506020612ae0878288016127ed565b9350506040612af18782880161259a565b925050606085013567ffffffffffffffff811115612b1257612b116124b9565b5b612b1e87828801612a79565b91505092959194509250565b612b338161266a565b8114612b3e57600080fd5b50565b600081359050612b5081612b2a565b92915050565b6000612b618261279a565b9050919050565b612b7181612b56565b8114612b7c57600080fd5b50565b600081359050612b8e81612b68565b92915050565b60008060008060008060c08789031215612bb157612bb06124b4565b5b6000612bbf89828a016127ed565b9650506020612bd089828a0161259a565b9550506040612be189828a01612b41565b9450506060612bf289828a01612b41565b9350506080612c0389828a01612b41565b92505060a0612c1489828a01612b7f565b9150509295509295509295565b60008060408385031215612c3857612c376124b4565b5b6000612c468582860161259a565b9250506020612c578582860161259a565b9150509250929050565b60008060408385031215612c7857612c776124b4565b5b6000612c86858286016127ed565b9250506020612c97858286016127ed565b9150509250929050565b7f4e487b7100000000000000000000000000000000000000000000000000000000600052602260045260246000fd5b60006002820490506001821680612ce857607f821691505b602082108103612cfb57612cfa612ca1565b5b50919050565b7f4552433732313a20617070726f76616c20746f2063757272656e74206f776e6560008201527f7200000000000000000000000000000000000000000000000000000000000000602082015250565b6000612d5d6021836126f3565b9150612d6882612d01565b604082019050919050565b60006020820190508181036000830152612d8c81612d50565b9050919050565b7f4552433732313a20617070726f76652063616c6c6572206973206e6f7420746f60008201527f6b656e206f776e6572206e6f7220617070726f76656420666f7220616c6c0000602082015250565b6000612def603e836126f3565b9150612dfa82612d93565b604082019050919050565b60006020820190508181036000830152612e1e81612de2565b9050919050565b7f4552433732313a2063616c6c6572206973206e6f7420746f6b656e206f776e6560008201527f72206e6f7220617070726f766564000000000000000000000000000000000000602082015250565b6000612e81602e836126f3565b9150612e8c82612e25565b604082019050919050565b60006020820190508181036000830152612eb081612e74565b9050919050565b7f56657374696e674e46543a20696e76616c696420746f6b656e20494400000000600082015250565b6000612eed601c836126f3565b9150612ef882612eb7565b602082019050919050565b60006020820190508181036000830152612f1c81612ee0565b9050919050565b7f4e6f74206f776e6572206f66204e465400000000000000000000000000000000600082015250565b6000612f596010836126f3565b9150612f6482612f23565b602082019050919050565b60006020820190508181036000830152612f8881612f4c565b9050919050565b7f56657374696e674e46543a204e6f2070656e64696e67207061796f7574000000600082015250565b6000612fc5601d836126f3565b9150612fd082612f8f565b602082019050919050565b60006020820190508181036000830152612ff481612fb8565b9050919050565b7f4e487b7100000000000000000000000000000000000000000000000000000000600052601160045260246000fd5b600061303582612579565b915061304083612579565b925082820190508082111561305857613057612ffb565b5b92915050565b7f4552433732313a20696e76616c696420746f6b656e2049440000000000000000600082015250565b60006130946018836126f3565b915061309f8261305e565b602082019050919050565b600060208201905081810360008301526130c381613087565b9050919050565b7f4552433732313a2061646472657373207a65726f206973206e6f74206120766160008201527f6c6964206f776e65720000000000000000000000000000000000000000000000602082015250565b60006131266029836126f3565b9150613131826130ca565b604082019050919050565b6000602082019050818103600083015261315581613119565b9050919050565b600061316782612579565b915061317283612579565b925082820390508181111561318a57613189612ffb565b5b92915050565b7f737461727454696d652063616e6e6f74206265206f6e20746865207061737400600082015250565b60006131c6601f836126f3565b91506131d182613190565b602082019050919050565b600060208201905081810360008301526131f5816131b9565b9050919050565b7f746f2063616e6e6f742062652061646472657373203000000000000000000000600082015250565b60006132326016836126f3565b915061323d826131fc565b602082019050919050565b6000602082019050818103600083015261326181613225565b9050919050565b7f6475726174696f6e206e6565647320746f206265206d6f7265207468616e206360008201527f6c69666600000000000000000000000000000000000000000000000000000000602082015250565b60006132c46024836126f3565b91506132cf82613268565b604082019050919050565b600060208201905081810360008301526132f3816132b7565b9050919050565b60006133058261266a565b91506133108361266a565b925082820190506fffffffffffffffffffffffffffffffff81111561333857613337612ffb565b5b92915050565b600061334982612579565b91507fffffffffffffffffffffffffffffffffffffffffffffffffffffffffffffffff820361337b5761337a612ffb565b5b600182019050919050565b600081905092915050565b600061339c826126e8565b6133a68185613386565b93506133b6818560208601612704565b80840191505092915050565b60006133ce8285613391565b91506133da8284613391565b91508190509392505050565b60006133f182612579565b91506133fc83612579565b925082820261340a81612579565b9150828204841483151761342157613420612ffb565b5b5092915050565b7f4e487b7100000000000000000000000000000000000000000000000000000000600052601260045260246000fd5b600061346282612579565b915061346d83612579565b92508261347d5761347c613428565b5b828204905092915050565b7f4552433732313a207472616e736665722066726f6d20696e636f72726563742060008201527f6f776e6572000000000000000000000000000000000000000000000000000000602082015250565b60006134e46025836126f3565b91506134ef82613488565b604082019050919050565b60006020820190508181036000830152613513816134d7565b9050919050565b7f4552433732313a207472616e7366657220746f20746865207a65726f2061646460008201527f7265737300000000000000000000000000000000000000000000000000000000602082015250565b60006135766024836126f3565b91506135818261351a565b604082019050919050565b600060208201905081810360008301526135a581613569565b9050919050565b60006040820190506135c160008301856127ac565b6135ce602083018461265b565b9392505050565b7f4552433732313a20617070726f766520746f2063616c6c657200000000000000600082015250565b600061360b6019836126f3565b9150613616826135d5565b602082019050919050565b6000602082019050818103600083015261363a816135fe565b9050919050565b7f4552433732313a207472616e7366657220746f206e6f6e20455243373231526560008201527f63656976657220696d706c656d656e7465720000000000000000000000000000602082015250565b600061369d6032836126f3565b91506136a882613641565b604082019050919050565b600060208201905081810360008301526136cc81613690565b9050919050565b7f4552433732313a206d696e7420746f20746865207a65726f2061646472657373600082015250565b60006137096020836126f3565b9150613714826136d3565b602082019050919050565b60006020820190508181036000830152613738816136fc565b9050919050565b7f4552433732313a20746f6b656e20616c7265616479206d696e74656400000000600082015250565b6000613775601c836126f3565b91506137808261373f565b602082019050919050565b600060208201905081810360008301526137a481613768565b9050919050565b60006060820190506137c060008301866127ac565b6137cd60208301856127ac565b6137da604083018461265b565b949350505050565b60006137ed82612579565b91506137f883612579565b92508261380857613807613428565b5b828206905092915050565b7f4e487b7100000000000000000000000000000000000000000000000000000000600052603260045260246000fd5b60008151905061385181612906565b92915050565b60006020828403121561386d5761386c6124b4565b5b600061387b84828501613842565b91505092915050565b7f5361666545524332303a204552433230206f7065726174696f6e20646964206e60008201527f6f74207375636365656400000000000000000000000000000000000000000000602082015250565b60006138e0602a836126f3565b91506138eb82613884565b604082019050919050565b6000602082019050818103600083015261390f816138d3565b9050919050565b600081519050919050565b600082825260208201905092915050565b600061393d82613916565b6139478185613921565b9350613957818560208601612704565b6139608161272e565b840191505092915050565b600060808201905061398060008301876127ac565b61398d60208301866127ac565b61399a604083018561265b565b81810360608301526139ac8184613932565b905095945050505050565b6000815190506139c6816124ea565b92915050565b6000602082840312156139e2576139e16124b4565b5b60006139f0848285016139b7565b91505092915050565b7f416464726573733a20696e73756666696369656e742062616c616e636520666f60008201527f722063616c6c0000000000000000000000000000000000000000000000000000602082015250565b6000613a556026836126f3565b9150613a60826139f9565b604082019050919050565b60006020820190508181036000830152613a8481613a48565b9050919050565b7f416464726573733a2063616c6c20746f206e6f6e2d636f6e7472616374000000600082015250565b6000613ac1601d836126f3565b9150613acc82613a8b565b602082019050919050565b60006020820190508181036000830152613af081613ab4565b9050919050565b600081905092915050565b6000613b0d82613916565b613b178185613af7565b9350613b27818560208601612704565b80840191505092915050565b6000613b3f8284613b02565b91508190509291505056fea264697066735822122074788ec82989a62cb965ac079947dd69c55338f90686427b791dab20d1bdcc7e64736f6c63430008110033",
  "linkReferences": {},
  "deployedLinkReferences": {}
}