{
  "_format": "hh-sol-artifact-1",
  "contractName": "LinearVestingNFT",
  "sourceName": "contracts/reference/LinearVestingNFT.sol",
  "abi": [
    {
      "inputs": [
        {
          "internalType": "string",
          "name": "name",
          "type": "string"
        },
        {
          "internalType": "string",
          "name": "symbol",
          "type": "string"
        }
      ],
      "stateMutability": "nonpayable",
      "type": "constructor"
    },
    {
      "anonymous": false,
      "inputs": [
        {
          "indexed": true,
          "internalType": "address",
          "name": "owner",
          "type": "address"
        },
        {
          "indexed": true,
          "internalType": "address",
          "name": "approved",
          "type": "address"
        },
        {
          "indexed": true,
          "internalType": "uint256",
          "name": "tokenId",
          "type": "uint256"
        }
      ],
      "name": "Approval",
      "type": "event"
    },
    {
      "anonymous": false,
      "inputs": [
        {
          "indexed": true,
          "internalType": "address",
          "name": "owner",
          "type": "address"
        },
        {
          "indexed": true,
          "internalType": "address",
          "name": "operator",
          "type": "address"
        },
        {
          "indexed": false,
          "internalType": "bool",
          "name": "approved",
          "type": "bool"
        }
      ],
      "name": "ApprovalForAll",
      "type": "event"
    },
    {
      "anonymous": false,
      "inputs": [
        {
          "indexed": true,
          "internalType": "uint256",
          "name": "tokenId",
          "type": "uint256"
        },
        {
          "indexed": true,
          "internalType": "address",
          "name": "recipient",
          "type": "address"
        },
        {
          "indexed": false,
          "internalType": "uint256",
          "name": "claimAmount",
          "type": "uint256"
        }
      ],
      "name": "PayoutClaimed",
      "type": "event"
    },
    {
      "anonymous": false,
      "inputs": [
        {
          "indexed": true,
          "internalType": "address",
          "name": "from",
          "type": "address"
        },
        {
          "indexed": true,
          "internalType": "address",
          "name": "to",
          "type": "address"
        },
        {
          "indexed": true,
          "internalType": "uint256",
          "name": "tokenId",
          "type": "uint256"
        }
      ],
      "name": "Transfer",
      "type": "event"
    },
    {
      "inputs": [
        {
          "internalType": "address",
          "name": "to",
          "type": "address"
        },
        {
          "internalType": "uint256",
          "name": "tokenId",
          "type": "uint256"
        }
      ],
      "name": "approve",
      "outputs": [],
      "stateMutability": "nonpayable",
      "type": "function"
    },
    {
      "inputs": [
        {
          "internalType": "address",
          "name": "owner",
          "type": "address"
        }
      ],
      "name": "balanceOf",
      "outputs": [
        {
          "internalType": "uint256",
          "name": "",
          "type": "uint256"
        }
      ],
      "stateMutability": "view",
      "type": "function"
    },
    {
      "inputs": [
        {
          "internalType": "uint256",
          "name": "tokenId",
          "type": "uint256"
        }
      ],
      "name": "claim",
      "outputs": [],
      "stateMutability": "nonpayable",
      "type": "function"
    },
    {
      "inputs": [
        {
          "internalType": "uint256",
          "name": "tokenId",
          "type": "uint256"
        }
      ],
      "name": "claimablePayout",
      "outputs": [
        {
          "internalType": "uint256",
          "name": "payout",
          "type": "uint256"
        }
      ],
      "stateMutability": "view",
      "type": "function"
    },
    {
      "inputs": [
        {
          "internalType": "uint256",
          "name": "tokenId",
          "type": "uint256"
        }
      ],
      "name": "claimedPayout",
      "outputs": [
        {
          "internalType": "uint256",
          "name": "payout",
          "type": "uint256"
        }
      ],
      "stateMutability": "view",
      "type": "function"
    },
    {
      "inputs": [
        {
          "internalType": "address",
          "name": "to",
          "type": "address"
        },
        {
          "internalType": "uint256",
          "name": "amount",
          "type": "uint256"
        },
        {
          "internalType": "uint128",
          "name": "startTime",
          "type": "uint128"
        },
        {
          "internalType": "uint128",
          "name": "duration",
          "type": "uint128"
        },
        {
          "internalType": "uint128",
          "name": "cliff",
          "type": "uint128"
        },
        {
          "internalType": "contract IERC20",
          "name": "token",
          "type": "address"
        }
      ],
      "name": "create",
      "outputs": [],
      "stateMutability": "nonpayable",
      "type": "function"
    },
    {
      "inputs": [
        {
          "internalType": "uint256",
          "name": "tokenId",
          "type": "uint256"
        }
      ],
      "name": "getApproved",
      "outputs": [
        {
          "internalType": "address",
          "name": "",
          "type": "address"
        }
      ],
      "stateMutability": "view",
      "type": "function"
    },
    {
      "inputs": [
        {
          "internalType": "address",
          "name": "owner",
          "type": "address"
        },
        {
          "internalType": "address",
          "name": "operator",
          "type": "address"
        }
      ],
      "name": "isApprovedForAll",
      "outputs": [
        {
          "internalType": "bool",
          "name": "",
          "type": "bool"
        }
      ],
      "stateMutability": "view",
      "type": "function"
    },
    {
      "inputs": [],
      "name": "name",
      "outputs": [
        {
          "internalType": "string",
          "name": "",
          "type": "string"
        }
      ],
      "stateMutability": "view",
      "type": "function"
    },
    {
      "inputs": [
        {
          "internalType": "uint256",
          "name": "tokenId",
          "type": "uint256"
        }
      ],
      "name": "ownerOf",
      "outputs": [
        {
          "internalType": "address",
          "name": "",
          "type": "address"
        }
      ],
      "stateMutability": "view",
      "type": "function"
    },
    {
      "inputs": [
        {
          "internalType": "uint256",
          "name": "tokenId",
          "type": "uint256"
        }
      ],
      "name": "payoutToken",
      "outputs": [
        {
          "internalType": "address",
          "name": "token",
          "type": "address"
        }
      ],
      "stateMutability": "view",
      "type": "function"
    },
    {
      "inputs": [
        {
          "internalType": "address",
          "name": "from",
          "type": "address"
        },
        {
          "internalType": "address",
          "name": "to",
          "type": "address"
        },
        {
          "internalType": "uint256",
          "name": "tokenId",
          "type": "uint256"
        }
      ],
      "name": "safeTransferFrom",
      "outputs": [],
      "stateMutability": "nonpayable",
      "type": "function"
    },
    {
      "inputs": [
        {
          "internalType": "address",
          "name": "from",
          "type": "address"
        },
        {
          "internalType": "address",
          "name": "to",
          "type": "address"
        },
        {
          "internalType": "uint256",
          "name": "tokenId",
          "type": "uint256"
        },
        {
          "internalType": "bytes",
          "name": "data",
          "type": "bytes"
        }
      ],
      "name": "safeTransferFrom",
      "outputs": [],
      "stateMutability": "nonpayable",
      "type": "function"
    },
    {
      "inputs": [
        {
          "internalType": "address",
          "name": "operator",
          "type": "address"
        },
        {
          "internalType": "bool",
          "name": "approved",
          "type": "bool"
        }
      ],
      "name": "setApprovalForAll",
      "outputs": [],
      "stateMutability": "nonpayable",
      "type": "function"
    },
    {
      "inputs": [
        {
          "internalType": "bytes4",
          "name": "interfaceId",
          "type": "bytes4"
        }
      ],
      "name": "supportsInterface",
      "outputs": [
        {
          "internalType": "bool",
          "name": "supported",
          "type": "bool"
        }
      ],
      "stateMutability": "view",
      "type": "function"
    },
    {
      "inputs": [],
      "name": "symbol",
      "outputs": [
        {
          "internalType": "string",
          "name": "",
          "type": "string"
        }
      ],
      "stateMutability": "view",
      "type": "function"
    },
    {
      "inputs": [
        {
          "internalType": "uint256",
          "name": "tokenId",
          "type": "uint256"
        }
      ],
      "name": "tokenURI",
      "outputs": [
        {
          "internalType": "string",
          "name": "",
          "type": "string"
        }
      ],
      "stateMutability": "view",
      "type": "function"
    },
    {
      "inputs": [
        {
          "internalType": "address",
          "name": "from",
          "type": "address"
        },
        {
          "internalType": "address",
          "name": "to",
          "type": "address"
        },
        {
          "internalType": "uint256",
          "name": "tokenId",
          "type": "uint256"
        }
      ],
      "name": "transferFrom",
      "outputs": [],
      "stateMutability": "nonpayable",
      "type": "function"
    },
    {
      "inputs": [
        {
          "internalType": "uint256",
          "name": "",
          "type": "uint256"
        }
      ],
      "name": "vestDetails",
      "outputs": [
        {
          "internalType": "contract IERC20",
          "name": "payoutToken",
          "type": "address"
        },
        {
          "internalType": "uint256",
          "name": "payout",
          "type": "uint256"
        },
        {
          "internalType": "uint128",
          "name": "startTime",
          "type": "uint128"
        },
        {
          "internalType": "uint128",
          "name": "endTime",
          "type": "uint128"
        },
        {
          "internalType": "uint128",
          "name": "cliff",
          "type": "uint128"
        }
      ],
      "stateMutability": "view",
      "type": "function"
    },
    {
      "inputs": [
        {
          "internalType": "uint256",
          "name": "tokenId",
          "type": "uint256"
        }
      ],
      "name": "vestedPayout",
      "outputs": [
        {
          "internalType": "uint256",
          "name": "payout",
          "type": "uint256"
        }
      ],
      "stateMutability": "view",
      "type": "function"
    },
    {
      "inputs": [
        {
          "internalType": "uint256",
          "name": "tokenId",
          "type": "uint256"
        },
        {
          "internalType": "uint256",
          "name": "timestamp",
          "type": "uint256"
        }
      ],
      "name": "vestedPayoutAtTime",
      "outputs": [
        {
          "internalType": "uint256",
          "name": "payout",
          "type": "uint256"
        }
      ],
      "stateMutability": "view",
      "type": "function"
    },
    {
      "inputs": [
        {
          "internalType": "uint256",
          "name": "tokenId",
          "type": "uint256"
        }
      ],
      "name": "vestingPayout",
      "outputs": [
        {
          "internalType": "uint256",
          "name": "payout",
          "type": "uint256"
        }
      ],
      "stateMutability": "view",
      "type": "function"
    },
    {
      "inputs": [
        {
          "internalType": "uint256",
          "name": "tokenId",
          "type": "uint256"
        }
      ],
      "name": "vestingPeriod",
      "outputs": [
        {
          "internalType": "uint256",
          "name": "vestingStart",
          "type": "uint256"
        },
        {
          "internalType": "uint256",
          "name": "vestingEnd",
          "type": "uint256"
        }
      ],
      "stateMutability": "view",
      "type": "function"
    }
  ],
  "bytecode": "0x60806040523480156200001157600080fd5b5060405162004306380380620043068339818101604052810190620000379190620001fa565b818181600090816200004a9190620004ca565b5080600190816200005c9190620004ca565b5050505050620005b1565b6000604051905090565b600080fd5b600080fd5b600080fd5b600080fd5b6000601f19601f8301169050919050565b7f4e487b7100000000000000000000000000000000000000000000000000000000600052604160045260246000fd5b620000d08262000085565b810181811067ffffffffffffffff82111715620000f257620000f162000096565b5b80604052505050565b60006200010762000067565b9050620001158282620000c5565b919050565b600067ffffffffffffffff82111562000138576200013762000096565b5b620001438262000085565b9050602081019050919050565b60005b838110156200017057808201518184015260208101905062000153565b60008484015250505050565b6000620001936200018d846200011a565b620000fb565b905082815260208101848484011115620001b257620001b162000080565b5b620001bf84828562000150565b509392505050565b600082601f830112620001df57620001de6200007b565b5b8151620001f18482602086016200017c565b91505092915050565b6000806040838503121562000214576200021362000071565b5b600083015167ffffffffffffffff81111562000235576200023462000076565b5b6200024385828601620001c7565b925050602083015167ffffffffffffffff81111562000267576200026662000076565b5b6200027585828601620001c7565b9150509250929050565b600081519050919050565b7f4e487b7100000000000000000000000000000000000000000000000000000000600052602260045260246000fd5b60006002820490506001821680620002d257607f821691505b602082108103620002e857620002e76200028a565b5b50919050565b60008190508160005260206000209050919050565b60006020601f8301049050919050565b600082821b905092915050565b600060088302620003527fffffffffffffffffffffffffffffffffffffffffffffffffffffffffffffffff8262000313565b6200035e868362000313565b95508019841693508086168417925050509392505050565b6000819050919050565b6000819050919050565b6000620003ab620003a56200039f8462000376565b62000380565b62000376565b9050919050565b6000819050919050565b620003c7836200038a565b620003df620003d682620003b2565b84845462000320565b825550505050565b600090565b620003f6620003e7565b62000403818484620003bc565b505050565b5b818110156200042b576200041f600082620003ec565b60018101905062000409565b5050565b601f8211156200047a576200044481620002ee565b6200044f8462000303565b810160208510156200045f578190505b620004776200046e8562000303565b83018262000408565b50505b505050565b600082821c905092915050565b60006200049f600019846008026200047f565b1980831691505092915050565b6000620004ba83836200048c565b9150826002028217905092915050565b620004d5826200027f565b67ffffffffffffffff811115620004f157620004f062000096565b5b620004fd8254620002b9565b6200050a8282856200042f565b600060209050601f8311600181146200054257600084156200052d578287015190505b620005398582620004ac565b865550620005a9565b601f1984166200055286620002ee565b60005b828110156200057c5784890151825560018201915060208501945060208101905062000555565b868310156200059c578489015162000598601f8916826200048c565b8355505b6001600288020188555050505b505050505050565b613d4580620005c16000396000f3fe608060405234801561001057600080fd5b506004361061014d5760003560e01c806381d0526d116100c3578063b88d4fde1161007c578063b88d4fde146103ff578063c196f42f1461041b578063c87b56dd14610437578063d744515f14610467578063db900b9d14610497578063e985e9c5146104c75761014d565b806381d0526d1461030557806384e968e6146103355780638b9cb90b1461036557806395d89b41146103955780639e0bd808146103b3578063a22cb465146103e35761014d565b806323b872dd1161011557806323b872dd14610220578063379607f51461023c57806342842e0e14610258578063576561d2146102745780636352211e146102a557806370a08231146102d55761014d565b806301ffc9a71461015257806303101bfd1461018257806306fdde03146101b6578063081812fc146101d4578063095ea7b314610204575b600080fd5b61016c6004803603810190610167919061273b565b6104f7565b6040516101799190612783565b60405180910390f35b61019c600480360381019061019791906127d4565b610571565b6040516101ad9594939291906128ba565b60405180910390f35b6101be61061b565b6040516101cb919061299d565b60405180910390f35b6101ee60048036038101906101e991906127d4565b6106ad565b6040516101fb91906129e0565b60405180910390f35b61021e60048036038101906102199190612a27565b6106f3565b005b61023a60048036038101906102359190612a67565b61080a565b005b610256600480360381019061025191906127d4565b61086a565b005b610272600480360381019061026d9190612a67565b610a2a565b005b61028e600480360381019061028991906127d4565b610a4a565b60405161029c929190612aba565b60405180910390f35b6102bf60048036038101906102ba91906127d4565b610ab2565b6040516102cc91906129e0565b60405180910390f35b6102ef60048036038101906102ea9190612ae3565b610b38565b6040516102fc9190612b10565b60405180910390f35b61031f600480360381019061031a91906127d4565b610bef565b60405161032c9190612b10565b60405180910390f35b61034f600480360381019061034a91906127d4565b610c5e565b60405161035c9190612b10565b60405180910390f35b61037f600480360381019061037a91906127d4565b610cc5565b60405161038c91906129e0565b60405180910390f35b61039d610d21565b6040516103aa919061299d565b60405180910390f35b6103cd60048036038101906103c891906127d4565b610db3565b6040516103da9190612b10565b60405180910390f35b6103fd60048036038101906103f89190612b57565b610e2d565b005b61041960048036038101906104149190612ccc565b610e43565b005b61043560048036038101906104309190612db9565b610ea5565b005b610451600480360381019061044c91906127d4565b6111e4565b60405161045e919061299d565b60405180910390f35b610481600480360381019061047c9190612e46565b61124c565b60405161048e9190612b10565b60405180910390f35b6104b160048036038101906104ac91906127d4565b611327565b6040516104be9190612b10565b60405180910390f35b6104e160048036038101906104dc9190612e86565b61133a565b6040516104ee9190612783565b60405180910390f35b60007f7c89676d000000000000000000000000000000000000000000000000000000007bffffffffffffffffffffffffffffffffffffffffffffffffffffffff1916827bffffffffffffffffffffffffffffffffffffffffffffffffffffffff1916148061056a5750610569826113ce565b5b9050919050565b60076020528060005260406000206000915090508060000160009054906101000a900473ffffffffffffffffffffffffffffffffffffffff16908060010154908060020160009054906101000a90046fffffffffffffffffffffffffffffffff16908060020160109054906101000a90046fffffffffffffffffffffffffffffffff16908060030160009054906101000a90046fffffffffffffffffffffffffffffffff16905085565b60606000805461062a90612ef5565b80601f016020809104026020016040519081016040528092919081815260200182805461065690612ef5565b80156106a35780601f10610678576101008083540402835291602001916106a3565b820191906000526020600020905b81548152906001019060200180831161068657829003601f168201915b5050505050905090565b60006106b8826114b0565b6004600083815260200190815260200160002060009054906101000a900473ffffffffffffffffffffffffffffffffffffffff169050919050565b60006106fe82610ab2565b90508073ffffffffffffffffffffffffffffffffffffffff168373ffffffffffffffffffffffffffffffffffffffff160361076e576040517f08c379a000000000000000000000000000000000000000000000000000000000815260040161076590612f98565b60405180910390fd5b8073ffffffffffffffffffffffffffffffffffffffff1661078d6114fb565b73ffffffffffffffffffffffffffffffffffffffff1614806107bc57506107bb816107b66114fb565b61133a565b5b6107fb576040517f08c379a00000000000000000000000000000000000000000000000000000000081526004016107f29061302a565b60405180910390fd5b6108058383611503565b505050565b61081b6108156114fb565b826115bc565b61085a576040517f08c379a0000000000000000000000000000000000000000000000000000000008152600401610851906130bc565b60405180910390fd5b610865838383611651565b505050565b806108748161194a565b6108b3576040517f08c379a00000000000000000000000000000000000000000000000000000000081526004016108aa90613128565b60405180910390fd5b3373ffffffffffffffffffffffffffffffffffffffff166108d383610ab2565b73ffffffffffffffffffffffffffffffffffffffff1614610929576040517f08c379a000000000000000000000000000000000000000000000000000000000815260040161092090613194565b60405180910390fd5b600061093483610db3565b905060008111610979576040517f08c379a000000000000000000000000000000000000000000000000000000000815260040161097090613200565b60405180910390fd5b3373ffffffffffffffffffffffffffffffffffffffff16837fe97cee5a4c0549d3fdc81e322b718ddf0aeb3418ec87dce4f9a7fb28d117c312836040516109c09190612b10565b60405180910390a3806006600085815260200190815260200160002060008282546109eb919061324f565b92505081905550610a253382610a0086610cc5565b73ffffffffffffffffffffffffffffffffffffffff1661198b9092919063ffffffff16565b505050565b610a4583838360405180602001604052806000815250610e43565b505050565b60008082610a578161194a565b610a96576040517f08c379a0000000000000000000000000000000000000000000000000000000008152600401610a8d90613128565b60405180910390fd5b610a9f84611a11565b610aa885611a5f565b9250925050915091565b600080610abe83611aad565b9050600073ffffffffffffffffffffffffffffffffffffffff168173ffffffffffffffffffffffffffffffffffffffff1603610b2f576040517f08c379a0000000000000000000000000000000000000000000000000000000008152600401610b26906132cf565b60405180910390fd5b80915050919050565b60008073ffffffffffffffffffffffffffffffffffffffff168273ffffffffffffffffffffffffffffffffffffffff1603610ba8576040517f08c379a0000000000000000000000000000000000000000000000000000000008152600401610b9f90613361565b60405180910390fd5b600360008373ffffffffffffffffffffffffffffffffffffffff1673ffffffffffffffffffffffffffffffffffffffff168152602001908152602001600020549050919050565b600081610bfb8161194a565b610c3a576040517f08c379a0000000000000000000000000000000000000000000000000000000008152600401610c3190613128565b60405180910390fd5b610c4383611327565b610c4c84611aea565b610c569190613381565b915050919050565b600081610c6a8161194a565b610ca9576040517f08c379a0000000000000000000000000000000000000000000000000000000008152600401610ca090613128565b60405180910390fd5b6006600084815260200190815260200160002054915050919050565b600081610cd18161194a565b610d10576040517f08c379a0000000000000000000000000000000000000000000000000000000008152600401610d0790613128565b60405180910390fd5b610d1983611b0a565b915050919050565b606060018054610d3090612ef5565b80601f0160208091040260200160405190810160405280929190818152602001828054610d5c90612ef5565b8015610da95780601f10610d7e57610100808354040283529160200191610da9565b820191906000526020600020905b815481529060010190602001808311610d8c57829003601f168201915b5050505050905090565b600081610dbf8161194a565b610dfe576040517f08c379a0000000000000000000000000000000000000000000000000000000008152600401610df590613128565b60405180910390fd5b6006600084815260200190815260200160002054610e1b84611327565b610e259190613381565b915050919050565b610e3f610e386114fb565b8383611b4a565b5050565b610e54610e4e6114fb565b836115bc565b610e93576040517f08c379a0000000000000000000000000000000000000000000000000000000008152600401610e8a906130bc565b60405180910390fd5b610e9f84848484611cb6565b50505050565b42846fffffffffffffffffffffffffffffffff161015610efa576040517f08c379a0000000000000000000000000000000000000000000000000000000008152600401610ef190613401565b60405180910390fd5b600073ffffffffffffffffffffffffffffffffffffffff168673ffffffffffffffffffffffffffffffffffffffff1603610f69576040517f08c379a0000000000000000000000000000000000000000000000000000000008152600401610f609061346d565b60405180910390fd5b826fffffffffffffffffffffffffffffffff16826fffffffffffffffffffffffffffffffff161115610fd0576040517f08c379a0000000000000000000000000000000000000000000000000000000008152600401610fc7906134ff565b60405180910390fd5b600060085490506040518060a001604052808373ffffffffffffffffffffffffffffffffffffffff168152602001878152602001866fffffffffffffffffffffffffffffffff1681526020018587611028919061351f565b6fffffffffffffffffffffffffffffffff168152602001848761104b919061351f565b6fffffffffffffffffffffffffffffffff168152506007600083815260200190815260200160002060008201518160000160006101000a81548173ffffffffffffffffffffffffffffffffffffffff021916908373ffffffffffffffffffffffffffffffffffffffff1602179055506020820151816001015560408201518160020160006101000a8154816fffffffffffffffffffffffffffffffff02191690836fffffffffffffffffffffffffffffffff16021790555060608201518160020160106101000a8154816fffffffffffffffffffffffffffffffff02191690836fffffffffffffffffffffffffffffffff16021790555060808201518160030160006101000a8154816fffffffffffffffffffffffffffffffff02191690836fffffffffffffffffffffffffffffffff1602179055509050506008600081548092919061119790613563565b91905055506111a68782611d12565b6111db3330886111b585610cc5565b73ffffffffffffffffffffffffffffffffffffffff16611f2f909392919063ffffffff16565b50505050505050565b60606111ef826114b0565b60006111f9611fb8565b905060008151116112195760405180602001604052806000815250611244565b8061122384611fcf565b6040516020016112349291906135e7565b6040516020818303038152906040525b915050919050565b6000826112588161194a565b611297576040517f08c379a000000000000000000000000000000000000000000000000000000000815260040161128e90613128565b60405180910390fd5b6112a08461209d565b8310156112b05760009150611320565b6112b984611a5f565b8311156112d0576112c984611aea565b9150611320565b6112d984611a11565b6112e285611a5f565b6112ec9190613381565b6112f585611a11565b846113009190613381565b61130986611aea565b611313919061360b565b61131d919061367c565b91505b5092915050565b6000611333824261124c565b9050919050565b6000600560008473ffffffffffffffffffffffffffffffffffffffff1673ffffffffffffffffffffffffffffffffffffffff16815260200190815260200160002060008373ffffffffffffffffffffffffffffffffffffffff1673ffffffffffffffffffffffffffffffffffffffff16815260200190815260200160002060009054906101000a900460ff16905092915050565b60007f80ac58cd000000000000000000000000000000000000000000000000000000007bffffffffffffffffffffffffffffffffffffffffffffffffffffffff1916827bffffffffffffffffffffffffffffffffffffffffffffffffffffffff1916148061149957507f5b5e139f000000000000000000000000000000000000000000000000000000007bffffffffffffffffffffffffffffffffffffffffffffffffffffffff1916827bffffffffffffffffffffffffffffffffffffffffffffffffffffffff1916145b806114a957506114a8826120eb565b5b9050919050565b6114b98161194a565b6114f8576040517f08c379a00000000000000000000000000000000000000000000000000000000081526004016114ef906132cf565b60405180910390fd5b50565b600033905090565b816004600083815260200190815260200160002060006101000a81548173ffffffffffffffffffffffffffffffffffffffff021916908373ffffffffffffffffffffffffffffffffffffffff160217905550808273ffffffffffffffffffffffffffffffffffffffff1661157683610ab2565b73ffffffffffffffffffffffffffffffffffffffff167f8c5be1e5ebec7d5bd14f71427d1e84f3dd0314c0f7b2291e5b200ac8c7c3b92560405160405180910390a45050565b6000806115c883610ab2565b90508073ffffffffffffffffffffffffffffffffffffffff168473ffffffffffffffffffffffffffffffffffffffff16148061160a5750611609818561133a565b5b8061164857508373ffffffffffffffffffffffffffffffffffffffff16611630846106ad565b73ffffffffffffffffffffffffffffffffffffffff16145b91505092915050565b8273ffffffffffffffffffffffffffffffffffffffff1661167182610ab2565b73ffffffffffffffffffffffffffffffffffffffff16146116c7576040517f08c379a00000000000000000000000000000000000000000000000000000000081526004016116be9061371f565b60405180910390fd5b600073ffffffffffffffffffffffffffffffffffffffff168273ffffffffffffffffffffffffffffffffffffffff1603611736576040517f08c379a000000000000000000000000000000000000000000000000000000000815260040161172d906137b1565b60405180910390fd5b6117438383836001612155565b8273ffffffffffffffffffffffffffffffffffffffff1661176382610ab2565b73ffffffffffffffffffffffffffffffffffffffff16146117b9576040517f08c379a00000000000000000000000000000000000000000000000000000000081526004016117b09061371f565b60405180910390fd5b6004600082815260200190815260200160002060006101000a81549073ffffffffffffffffffffffffffffffffffffffff02191690556001600360008573ffffffffffffffffffffffffffffffffffffffff1673ffffffffffffffffffffffffffffffffffffffff168152602001908152602001600020600082825403925050819055506001600360008473ffffffffffffffffffffffffffffffffffffffff1673ffffffffffffffffffffffffffffffffffffffff16815260200190815260200160002060008282540192505081905550816002600083815260200190815260200160002060006101000a81548173ffffffffffffffffffffffffffffffffffffffff021916908373ffffffffffffffffffffffffffffffffffffffff160217905550808273ffffffffffffffffffffffffffffffffffffffff168473ffffffffffffffffffffffffffffffffffffffff167fddf252ad1be2c89b69c2b068fc378daa952ba7f163c4a11628f55a4df523b3ef60405160405180910390a4611945838383600161215b565b505050565b60008073ffffffffffffffffffffffffffffffffffffffff1661196c83611aad565b73ffffffffffffffffffffffffffffffffffffffff1614159050919050565b611a0c8363a9059cbb60e01b84846040516024016119aa9291906137d1565b604051602081830303815290604052907bffffffffffffffffffffffffffffffffffffffffffffffffffffffff19166020820180517bffffffffffffffffffffffffffffffffffffffffffffffffffffffff8381831617835250505050612161565b505050565b60006007600083815260200190815260200160002060020160009054906101000a90046fffffffffffffffffffffffffffffffff166fffffffffffffffffffffffffffffffff169050919050565b60006007600083815260200190815260200160002060020160109054906101000a90046fffffffffffffffffffffffffffffffff166fffffffffffffffffffffffffffffffff169050919050565b60006002600083815260200190815260200160002060009054906101000a900473ffffffffffffffffffffffffffffffffffffffff169050919050565b600060076000838152602001908152602001600020600101549050919050565b60006007600083815260200190815260200160002060000160009054906101000a900473ffffffffffffffffffffffffffffffffffffffff169050919050565b8173ffffffffffffffffffffffffffffffffffffffff168373ffffffffffffffffffffffffffffffffffffffff1603611bb8576040517f08c379a0000000000000000000000000000000000000000000000000000000008152600401611baf90613846565b60405180910390fd5b80600560008573ffffffffffffffffffffffffffffffffffffffff1673ffffffffffffffffffffffffffffffffffffffff16815260200190815260200160002060008473ffffffffffffffffffffffffffffffffffffffff1673ffffffffffffffffffffffffffffffffffffffff16815260200190815260200160002060006101000a81548160ff0219169083151502179055508173ffffffffffffffffffffffffffffffffffffffff168373ffffffffffffffffffffffffffffffffffffffff167f17307eab39ab6107e8899845ad3d59bd9653f200f220920489ca2b5937696c3183604051611ca99190612783565b60405180910390a3505050565b611cc1848484611651565b611ccd84848484612228565b611d0c576040517f08c379a0000000000000000000000000000000000000000000000000000000008152600401611d03906138d8565b60405180910390fd5b50505050565b600073ffffffffffffffffffffffffffffffffffffffff168273ffffffffffffffffffffffffffffffffffffffff1603611d81576040517f08c379a0000000000000000000000000000000000000000000000000000000008152600401611d7890613944565b60405180910390fd5b611d8a8161194a565b15611dca576040517f08c379a0000000000000000000000000000000000000000000000000000000008152600401611dc1906139b0565b60405180910390fd5b611dd8600083836001612155565b611de18161194a565b15611e21576040517f08c379a0000000000000000000000000000000000000000000000000000000008152600401611e18906139b0565b60405180910390fd5b6001600360008473ffffffffffffffffffffffffffffffffffffffff1673ffffffffffffffffffffffffffffffffffffffff16815260200190815260200160002060008282540192505081905550816002600083815260200190815260200160002060006101000a81548173ffffffffffffffffffffffffffffffffffffffff021916908373ffffffffffffffffffffffffffffffffffffffff160217905550808273ffffffffffffffffffffffffffffffffffffffff16600073ffffffffffffffffffffffffffffffffffffffff167fddf252ad1be2c89b69c2b068fc378daa952ba7f163c4a11628f55a4df523b3ef60405160405180910390a4611f2b60008383600161215b565b5050565b611fb2846323b872dd60e01b858585604051602401611f50939291906139d0565b604051602081830303815290604052907bffffffffffffffffffffffffffffffffffffffffffffffffffffffff19166020820180517bffffffffffffffffffffffffffffffffffffffffffffffffffffffff8381831617835250505050612161565b50505050565b606060405180602001604052806000815250905090565b606060006001611fde846123af565b01905060008167ffffffffffffffff811115611ffd57611ffc612ba1565b5b6040519080825280601f01601f19166020018201604052801561202f5781602001600182028036833780820191505090505b509050600082602001820190505b600115612092578080600190039150507f3031323334353637383961626364656600000000000000000000000000000000600a86061a8153600a85816120865761208561364d565b5b0494506000850361203d575b819350505050919050565b60006007600083815260200190815260200160002060030160009054906101000a90046fffffffffffffffffffffffffffffffff166fffffffffffffffffffffffffffffffff169050919050565b60007f01ffc9a7000000000000000000000000000000000000000000000000000000007bffffffffffffffffffffffffffffffffffffffffffffffffffffffff1916827bffffffffffffffffffffffffffffffffffffffffffffffffffffffff1916149050919050565b50505050565b50505050565b60006121c3826040518060400160405280602081526020017f5361666545524332303a206c6f772d6c6576656c2063616c6c206661696c65648152508573ffffffffffffffffffffffffffffffffffffffff166125029092919063ffffffff16565b905060008151111561222357808060200190518101906121e39190613a1c565b612222576040517f08c379a000000000000000000000000000000000000000000000000000000000815260040161221990613abb565b60405180910390fd5b5b505050565b60006122498473ffffffffffffffffffffffffffffffffffffffff1661251a565b156123a2578373ffffffffffffffffffffffffffffffffffffffff1663150b7a026122726114fb565b8786866040518563ffffffff1660e01b81526004016122949493929190613b30565b6020604051808303816000875af19250505080156122d057506040513d601f19601f820116820180604052508101906122cd9190613b91565b60015b612352573d8060008114612300576040519150601f19603f3d011682016040523d82523d6000602084013e612305565b606091505b50600081510361234a576040517f08c379a0000000000000000000000000000000000000000000000000000000008152600401612341906138d8565b60405180910390fd5b805181602001fd5b63150b7a0260e01b7bffffffffffffffffffffffffffffffffffffffffffffffffffffffff1916817bffffffffffffffffffffffffffffffffffffffffffffffffffffffff1916149150506123a7565b600190505b949350505050565b600080600090507a184f03e93ff9f4daa797ed6e38ed64bf6a1f010000000000000000831061240d577a184f03e93ff9f4daa797ed6e38ed64bf6a1f01000000000000000083816124035761240261364d565b5b0492506040810190505b6d04ee2d6d415b85acef8100000000831061244a576d04ee2d6d415b85acef810000000083816124405761243f61364d565b5b0492506020810190505b662386f26fc10000831061247957662386f26fc10000838161246f5761246e61364d565b5b0492506010810190505b6305f5e10083106124a2576305f5e10083816124985761249761364d565b5b0492506008810190505b61271083106124c75761271083816124bd576124bc61364d565b5b0492506004810190505b606483106124ea57606483816124e0576124df61364d565b5b0492506002810190505b600a83106124f9576001810190505b80915050919050565b6060612511848460008561253d565b90509392505050565b6000808273ffffffffffffffffffffffffffffffffffffffff163b119050919050565b606082471015612582576040517f08c379a000000000000000000000000000000000000000000000000000000000815260040161257990613c30565b60405180910390fd5b6000808673ffffffffffffffffffffffffffffffffffffffff1685876040516125ab9190613c8c565b60006040518083038185875af1925050503d80600081146125e8576040519150601f19603f3d011682016040523d82523d6000602084013e6125ed565b606091505b50915091506125fe8783838761260a565b92505050949350505050565b6060831561266c576000835103612664576126248561251a565b612663576040517f08c379a000000000000000000000000000000000000000000000000000000000815260040161265a90613cef565b60405180910390fd5b5b829050612677565b612676838361267f565b5b949350505050565b6000825111156126925781518083602001fd5b806040517f08c379a00000000000000000000000000000000000000000000000000000000081526004016126c6919061299d565b60405180910390fd5b6000604051905090565b600080fd5b600080fd5b60007fffffffff0000000000000000000000000000000000000000000000000000000082169050919050565b612718816126e3565b811461272357600080fd5b50565b6000813590506127358161270f565b92915050565b600060208284031215612751576127506126d9565b5b600061275f84828501612726565b91505092915050565b60008115159050919050565b61277d81612768565b82525050565b60006020820190506127986000830184612774565b92915050565b6000819050919050565b6127b18161279e565b81146127bc57600080fd5b50565b6000813590506127ce816127a8565b92915050565b6000602082840312156127ea576127e96126d9565b5b60006127f8848285016127bf565b91505092915050565b600073ffffffffffffffffffffffffffffffffffffffff82169050919050565b6000819050919050565b600061284661284161283c84612801565b612821565b612801565b9050919050565b60006128588261282b565b9050919050565b600061286a8261284d565b9050919050565b61287a8161285f565b82525050565b6128898161279e565b82525050565b60006fffffffffffffffffffffffffffffffff82169050919050565b6128b48161288f565b82525050565b600060a0820190506128cf6000830188612871565b6128dc6020830187612880565b6128e960408301866128ab565b6128f660608301856128ab565b61290360808301846128ab565b9695505050505050565b600081519050919050565b600082825260208201905092915050565b60005b8381101561294757808201518184015260208101905061292c565b60008484015250505050565b6000601f19601f8301169050919050565b600061296f8261290d565b6129798185612918565b9350612989818560208601612929565b61299281612953565b840191505092915050565b600060208201905081810360008301526129b78184612964565b905092915050565b60006129ca82612801565b9050919050565b6129da816129bf565b82525050565b60006020820190506129f560008301846129d1565b92915050565b612a04816129bf565b8114612a0f57600080fd5b50565b600081359050612a21816129fb565b92915050565b60008060408385031215612a3e57612a3d6126d9565b5b6000612a4c85828601612a12565b9250506020612a5d858286016127bf565b9150509250929050565b600080600060608486031215612a8057612a7f6126d9565b5b6000612a8e86828701612a12565b9350506020612a9f86828701612a12565b9250506040612ab0868287016127bf565b9150509250925092565b6000604082019050612acf6000830185612880565b612adc6020830184612880565b9392505050565b600060208284031215612af957612af86126d9565b5b6000612b0784828501612a12565b91505092915050565b6000602082019050612b256000830184612880565b92915050565b612b3481612768565b8114612b3f57600080fd5b50565b600081359050612b5181612b2b565b92915050565b60008060408385031215612b6e57612b6d6126d9565b5b6000612b7c85828601612a12565b9250506020612b8d85828601612b42565b9150509250929050565b600080fd5b600080fd5b7f4e487b7100000000000000000000000000000000000000000000000000000000600052604160045260246000fd5b612bd982612953565b810181811067ffffffffffffffff82111715612bf857612bf7612ba1565b5b80604052505050565b6000612c0b6126cf565b9050612c178282612bd0565b919050565b600067ffffffffffffffff821115612c3757612c36612ba1565b5b612c4082612953565b9050602081019050919050565b82818337600083830152505050565b6000612c6f612c6a84612c1c565b612c01565b905082815260208101848484011115612c8b57612c8a612b9c565b5b612c96848285612c4d565b509392505050565b600082601f830112612cb357612cb2612b97565b5b8135612cc3848260208601612c5c565b91505092915050565b60008060008060808587031215612ce657612ce56126d9565b5b6000612cf487828801612a12565b9450506020612d0587828801612a12565b9350506040612d16878288016127bf565b925050606085013567ffffffffffffffff811115612d3757612d366126de565b5b612d4387828801612c9e565b91505092959194509250565b612d588161288f565b8114612d6357600080fd5b50565b600081359050612d7581612d4f565b92915050565b6000612d86826129bf565b9050919050565b612d9681612d7b565b8114612da157600080fd5b50565b600081359050612db381612d8d565b92915050565b60008060008060008060c08789031215612dd657612dd56126d9565b5b6000612de489828a01612a12565b9650506020612df589828a016127bf565b9550506040612e0689828a01612d66565b9450506060612e1789828a01612d66565b9350506080612e2889828a01612d66565b92505060a0612e3989828a01612da4565b9150509295509295509295565b60008060408385031215612e5d57612e5c6126d9565b5b6000612e6b858286016127bf565b9250506020612e7c858286016127bf565b9150509250929050565b60008060408385031215612e9d57612e9c6126d9565b5b6000612eab85828601612a12565b9250506020612ebc85828601612a12565b9150509250929050565b7f4e487b7100000000000000000000000000000000000000000000000000000000600052602260045260246000fd5b60006002820490506001821680612f0d57607f821691505b602082108103612f2057612f1f612ec6565b5b50919050565b7f4552433732313a20617070726f76616c20746f2063757272656e74206f776e6560008201527f7200000000000000000000000000000000000000000000000000000000000000602082015250565b6000612f82602183612918565b9150612f8d82612f26565b604082019050919050565b60006020820190508181036000830152612fb181612f75565b9050919050565b7f4552433732313a20617070726f76652063616c6c6572206973206e6f7420746f60008201527f6b656e206f776e6572206f7220617070726f76656420666f7220616c6c000000602082015250565b6000613014603d83612918565b915061301f82612fb8565b604082019050919050565b6000602082019050818103600083015261304381613007565b9050919050565b7f4552433732313a2063616c6c6572206973206e6f7420746f6b656e206f776e6560008201527f72206f7220617070726f76656400000000000000000000000000000000000000602082015250565b60006130a6602d83612918565b91506130b18261304a565b604082019050919050565b600060208201905081810360008301526130d581613099565b9050919050565b7f455243353732353a20696e76616c696420746f6b656e20494400000000000000600082015250565b6000613112601983612918565b915061311d826130dc565b602082019050919050565b6000602082019050818103600083015261314181613105565b9050919050565b7f4e6f74206f776e6572206f66204e465400000000000000000000000000000000600082015250565b600061317e601083612918565b915061318982613148565b602082019050919050565b600060208201905081810360008301526131ad81613171565b9050919050565b7f455243353732353a204e6f2070656e64696e67207061796f7574000000000000600082015250565b60006131ea601a83612918565b91506131f5826131b4565b602082019050919050565b60006020820190508181036000830152613219816131dd565b9050919050565b7f4e487b7100000000000000000000000000000000000000000000000000000000600052601160045260246000fd5b600061325a8261279e565b91506132658361279e565b925082820190508082111561327d5761327c613220565b5b92915050565b7f4552433732313a20696e76616c696420746f6b656e2049440000000000000000600082015250565b60006132b9601883612918565b91506132c482613283565b602082019050919050565b600060208201905081810360008301526132e8816132ac565b9050919050565b7f4552433732313a2061646472657373207a65726f206973206e6f74206120766160008201527f6c6964206f776e65720000000000000000000000000000000000000000000000602082015250565b600061334b602983612918565b9150613356826132ef565b604082019050919050565b6000602082019050818103600083015261337a8161333e565b9050919050565b600061338c8261279e565b91506133978361279e565b92508282039050818111156133af576133ae613220565b5b92915050565b7f737461727454696d652063616e6e6f74206265206f6e20746865207061737400600082015250565b60006133eb601f83612918565b91506133f6826133b5565b602082019050919050565b6000602082019050818103600083015261341a816133de565b9050919050565b7f746f2063616e6e6f742062652061646472657373203000000000000000000000600082015250565b6000613457601683612918565b915061346282613421565b602082019050919050565b600060208201905081810360008301526134868161344a565b9050919050565b7f6475726174696f6e206e6565647320746f206265206d6f7265207468616e206360008201527f6c69666600000000000000000000000000000000000000000000000000000000602082015250565b60006134e9602483612918565b91506134f48261348d565b604082019050919050565b60006020820190508181036000830152613518816134dc565b9050919050565b600061352a8261288f565b91506135358361288f565b925082820190506fffffffffffffffffffffffffffffffff81111561355d5761355c613220565b5b92915050565b600061356e8261279e565b91507fffffffffffffffffffffffffffffffffffffffffffffffffffffffffffffffff82036135a05761359f613220565b5b600182019050919050565b600081905092915050565b60006135c18261290d565b6135cb81856135ab565b93506135db818560208601612929565b80840191505092915050565b60006135f382856135b6565b91506135ff82846135b6565b91508190509392505050565b60006136168261279e565b91506136218361279e565b925082820261362f8161279e565b9150828204841483151761364657613645613220565b5b5092915050565b7f4e487b7100000000000000000000000000000000000000000000000000000000600052601260045260246000fd5b60006136878261279e565b91506136928361279e565b9250826136a2576136a161364d565b5b828204905092915050565b7f4552433732313a207472616e736665722066726f6d20696e636f72726563742060008201527f6f776e6572000000000000000000000000000000000000000000000000000000602082015250565b6000613709602583612918565b9150613714826136ad565b604082019050919050565b60006020820190508181036000830152613738816136fc565b9050919050565b7f4552433732313a207472616e7366657220746f20746865207a65726f2061646460008201527f7265737300000000000000000000000000000000000000000000000000000000602082015250565b600061379b602483612918565b91506137a68261373f565b604082019050919050565b600060208201905081810360008301526137ca8161378e565b9050919050565b60006040820190506137e660008301856129d1565b6137f36020830184612880565b9392505050565b7f4552433732313a20617070726f766520746f2063616c6c657200000000000000600082015250565b6000613830601983612918565b915061383b826137fa565b602082019050919050565b6000602082019050818103600083015261385f81613823565b9050919050565b7f4552433732313a207472616e7366657220746f206e6f6e20455243373231526560008201527f63656976657220696d706c656d656e7465720000000000000000000000000000602082015250565b60006138c2603283612918565b91506138cd82613866565b604082019050919050565b600060208201905081810360008301526138f1816138b5565b9050919050565b7f4552433732313a206d696e7420746f20746865207a65726f2061646472657373600082015250565b600061392e602083612918565b9150613939826138f8565b602082019050919050565b6000602082019050818103600083015261395d81613921565b9050919050565b7f4552433732313a20746f6b656e20616c7265616479206d696e74656400000000600082015250565b600061399a601c83612918565b91506139a582613964565b602082019050919050565b600060208201905081810360008301526139c98161398d565b9050919050565b60006060820190506139e560008301866129d1565b6139f260208301856129d1565b6139ff6040830184612880565b949350505050565b600081519050613a1681612b2b565b92915050565b600060208284031215613a3257613a316126d9565b5b6000613a4084828501613a07565b91505092915050565b7f5361666545524332303a204552433230206f7065726174696f6e20646964206e60008201527f6f74207375636365656400000000000000000000000000000000000000000000602082015250565b6000613aa5602a83612918565b9150613ab082613a49565b604082019050919050565b60006020820190508181036000830152613ad481613a98565b9050919050565b600081519050919050565b600082825260208201905092915050565b6000613b0282613adb565b613b0c8185613ae6565b9350613b1c818560208601612929565b613b2581612953565b840191505092915050565b6000608082019050613b4560008301876129d1565b613b5260208301866129d1565b613b5f6040830185612880565b8181036060830152613b718184613af7565b905095945050505050565b600081519050613b8b8161270f565b92915050565b600060208284031215613ba757613ba66126d9565b5b6000613bb584828501613b7c565b91505092915050565b7f416464726573733a20696e73756666696369656e742062616c616e636520666f60008201527f722063616c6c0000000000000000000000000000000000000000000000000000602082015250565b6000613c1a602683612918565b9150613c2582613bbe565b604082019050919050565b60006020820190508181036000830152613c4981613c0d565b9050919050565b600081905092915050565b6000613c6682613adb565b613c708185613c50565b9350613c80818560208601612929565b80840191505092915050565b6000613c988284613c5b565b915081905092915050565b7f416464726573733a2063616c6c20746f206e6f6e2d636f6e7472616374000000600082015250565b6000613cd9601d83612918565b9150613ce482613ca3565b602082019050919050565b60006020820190508181036000830152613d0881613ccc565b905091905056fea26469706673582212205729ccb4d71d51cb046d97d5b0fcca978fd585cbf5594a674a87846920d1e45264736f6c63430008110033",
  "linkReferences": {},
  "deployedLinkReferences": {}
}