{
  "_format": "hh-sol-artifact-1",
  "contractName": "VestingNFT",
  "sourceName": "contracts/reference/VestingNFT.sol",
  "abi": [
    {
      "inputs": [
        {
          "internalType": "string",
          "name": "name",
          "type": "string"
        },
        {
          "internalType": "string",
          "name": "symbol",
          "type": "string"
        }
      ],
      "stateMutability": "nonpayable",
      "type": "constructor"
    },
    {
      "anonymous": false,
      "inputs": [
        {
          "indexed": true,
          "internalType": "address",
          "name": "owner",
          "type": "address"
        },
        {
          "indexed": true,
          "internalType": "address",
          "name": "approved",
          "type": "address"
        },
        {
          "indexed": true,
          "internalType": "uint256",
          "name": "tokenId",
          "type": "uint256"
        }
      ],
      "name": "Approval",
      "type": "event"
    },
    {
      "anonymous": false,
      "inputs": [
        {
          "indexed": true,
          "internalType": "address",
          "name": "owner",
          "type": "address"
        },
        {
          "indexed": true,
          "internalType": "address",
          "name": "operator",
          "type": "address"
        },
        {
          "indexed": false,
          "internalType": "bool",
          "name": "approved",
          "type": "bool"
        }
      ],
      "name": "ApprovalForAll",
      "type": "event"
    },
    {
      "anonymous": false,
      "inputs": [
        {
          "indexed": true,
          "internalType": "uint256",
          "name": "tokenId",
          "type": "uint256"
        },
        {
          "indexed": true,
          "internalType": "address",
          "name": "recipient",
          "type": "address"
        },
        {
          "indexed": false,
          "internalType": "uint256",
          "name": "claimAmount",
          "type": "uint256"
        }
      ],
      "name": "PayoutClaimed",
      "type": "event"
    },
    {
      "anonymous": false,
      "inputs": [
        {
          "indexed": true,
          "internalType": "address",
          "name": "from",
          "type": "address"
        },
        {
          "indexed": true,
          "internalType": "address",
          "name": "to",
          "type": "address"
        },
        {
          "indexed": true,
          "internalType": "uint256",
          "name": "tokenId",
          "type": "uint256"
        }
      ],
      "name": "Transfer",
      "type": "event"
    },
    {
      "inputs": [
        {
          "internalType": "address",
          "name": "to",
          "type": "address"
        },
        {
          "internalType": "uint256",
          "name": "tokenId",
          "type": "uint256"
        }
      ],
      "name": "approve",
      "outputs": [],
      "stateMutability": "nonpayable",
      "type": "function"
    },
    {
      "inputs": [
        {
          "internalType": "address",
          "name": "owner",
          "type": "address"
        }
      ],
      "name": "balanceOf",
      "outputs": [
        {
          "internalType": "uint256",
          "name": "",
          "type": "uint256"
        }
      ],
      "stateMutability": "view",
      "type": "function"
    },
    {
      "inputs": [
        {
          "internalType": "uint256",
          "name": "tokenId",
          "type": "uint256"
        }
      ],
      "name": "claim",
      "outputs": [],
      "stateMutability": "nonpayable",
      "type": "function"
    },
    {
      "inputs": [
        {
          "internalType": "uint256",
          "name": "tokenId",
          "type": "uint256"
        }
      ],
      "name": "claimablePayout",
      "outputs": [
        {
          "internalType": "uint256",
          "name": "payout",
          "type": "uint256"
        }
      ],
      "stateMutability": "view",
      "type": "function"
    },
    {
      "inputs": [
        {
          "internalType": "uint256",
          "name": "tokenId",
          "type": "uint256"
        }
      ],
      "name": "claimedPayout",
      "outputs": [
        {
          "internalType": "uint256",
          "name": "payout",
          "type": "uint256"
        }
      ],
      "stateMutability": "view",
      "type": "function"
    },
    {
      "inputs": [
        {
          "internalType": "address",
          "name": "to",
          "type": "address"
        },
        {
          "internalType": "uint256",
          "name": "amount",
          "type": "uint256"
        },
        {
          "internalType": "uint128",
          "name": "releaseTimestamp",
          "type": "uint128"
        },
        {
          "internalType": "contract IERC20",
          "name": "token",
          "type": "address"
        }
      ],
      "name": "create",
      "outputs": [],
      "stateMutability": "nonpayable",
      "type": "function"
    },
    {
      "inputs": [
        {
          "internalType": "uint256",
          "name": "tokenId",
          "type": "uint256"
        }
      ],
      "name": "getApproved",
      "outputs": [
        {
          "internalType": "address",
          "name": "",
          "type": "address"
        }
      ],
      "stateMutability": "view",
      "type": "function"
    },
    {
      "inputs": [
        {
          "internalType": "address",
          "name": "owner",
          "type": "address"
        },
        {
          "internalType": "address",
          "name": "operator",
          "type": "address"
        }
      ],
      "name": "isApprovedForAll",
      "outputs": [
        {
          "internalType": "bool",
          "name": "",
          "type": "bool"
        }
      ],
      "stateMutability": "view",
      "type": "function"
    },
    {
      "inputs": [],
      "name": "name",
      "outputs": [
        {
          "internalType": "string",
          "name": "",
          "type": "string"
        }
      ],
      "stateMutability": "view",
      "type": "function"
    },
    {
      "inputs": [
        {
          "internalType": "uint256",
          "name": "tokenId",
          "type": "uint256"
        }
      ],
      "name": "ownerOf",
      "outputs": [
        {
          "internalType": "address",
          "name": "",
          "type": "address"
        }
      ],
      "stateMutability": "view",
      "type": "function"
    },
    {
      "inputs": [
        {
          "internalType": "uint256",
          "name": "tokenId",
          "type": "uint256"
        }
      ],
      "name": "payoutToken",
      "outputs": [
        {
          "internalType": "address",
          "name": "token",
          "type": "address"
        }
      ],
      "stateMutability": "view",
      "type": "function"
    },
    {
      "inputs": [
        {
          "internalType": "address",
          "name": "from",
          "type": "address"
        },
        {
          "internalType": "address",
          "name": "to",
          "type": "address"
        },
        {
          "internalType": "uint256",
          "name": "tokenId",
          "type": "uint256"
        }
      ],
      "name": "safeTransferFrom",
      "outputs": [],
      "stateMutability": "nonpayable",
      "type": "function"
    },
    {
      "inputs": [
        {
          "internalType": "address",
          "name": "from",
          "type": "address"
        },
        {
          "internalType": "address",
          "name": "to",
          "type": "address"
        },
        {
          "internalType": "uint256",
          "name": "tokenId",
          "type": "uint256"
        },
        {
          "internalType": "bytes",
          "name": "data",
          "type": "bytes"
        }
      ],
      "name": "safeTransferFrom",
      "outputs": [],
      "stateMutability": "nonpayable",
      "type": "function"
    },
    {
      "inputs": [
        {
          "internalType": "address",
          "name": "operator",
          "type": "address"
        },
        {
          "internalType": "bool",
          "name": "approved",
          "type": "bool"
        }
      ],
      "name": "setApprovalForAll",
      "outputs": [],
      "stateMutability": "nonpayable",
      "type": "function"
    },
    {
      "inputs": [
        {
          "internalType": "bytes4",
          "name": "interfaceId",
          "type": "bytes4"
        }
      ],
      "name": "supportsInterface",
      "outputs": [
        {
          "internalType": "bool",
          "name": "supported",
          "type": "bool"
        }
      ],
      "stateMutability": "view",
      "type": "function"
    },
    {
      "inputs": [],
      "name": "symbol",
      "outputs": [
        {
          "internalType": "string",
          "name": "",
          "type": "string"
        }
      ],
      "stateMutability": "view",
      "type": "function"
    },
    {
      "inputs": [
        {
          "internalType": "uint256",
          "name": "tokenId",
          "type": "uint256"
        }
      ],
      "name": "tokenURI",
      "outputs": [
        {
          "internalType": "string",
          "name": "",
          "type": "string"
        }
      ],
      "stateMutability": "view",
      "type": "function"
    },
    {
      "inputs": [
        {
          "internalType": "address",
          "name": "from",
          "type": "address"
        },
        {
          "internalType": "address",
          "name": "to",
          "type": "address"
        },
        {
          "internalType": "uint256",
          "name": "tokenId",
          "type": "uint256"
        }
      ],
      "name": "transferFrom",
      "outputs": [],
      "stateMutability": "nonpayable",
      "type": "function"
    },
    {
      "inputs": [
        {
          "internalType": "uint256",
          "name": "",
          "type": "uint256"
        }
      ],
      "name": "vestDetails",
      "outputs": [
        {
          "internalType": "contract IERC20",
          "name": "payoutToken",
          "type": "address"
        },
        {
          "internalType": "uint256",
          "name": "payout",
          "type": "uint256"
        },
        {
          "internalType": "uint128",
          "name": "startTime",
          "type": "uint128"
        },
        {
          "internalType": "uint128",
          "name": "endTime",
          "type": "uint128"
        }
      ],
      "stateMutability": "view",
      "type": "function"
    },
    {
      "inputs": [
        {
          "internalType": "uint256",
          "name": "tokenId",
          "type": "uint256"
        }
      ],
      "name": "vestedPayout",
      "outputs": [
        {
          "internalType": "uint256",
          "name": "payout",
          "type": "uint256"
        }
      ],
      "stateMutability": "view",
      "type": "function"
    },
    {
      "inputs": [
        {
          "internalType": "uint256",
          "name": "tokenId",
          "type": "uint256"
        },
        {
          "internalType": "uint256",
          "name": "timestamp",
          "type": "uint256"
        }
      ],
      "name": "vestedPayoutAtTime",
      "outputs": [
        {
          "internalType": "uint256",
          "name": "payout",
          "type": "uint256"
        }
      ],
      "stateMutability": "view",
      "type": "function"
    },
    {
      "inputs": [
        {
          "internalType": "uint256",
          "name": "tokenId",
          "type": "uint256"
        }
      ],
      "name": "vestingPayout",
      "outputs": [
        {
          "internalType": "uint256",
          "name": "payout",
          "type": "uint256"
        }
      ],
      "stateMutability": "view",
      "type": "function"
    },
    {
      "inputs": [
        {
          "internalType": "uint256",
          "name": "tokenId",
          "type": "uint256"
        }
      ],
      "name": "vestingPeriod",
      "outputs": [
        {
          "internalType": "uint256",
          "name": "vestingStart",
          "type": "uint256"
        },
        {
          "internalType": "uint256",
          "name": "vestingEnd",
          "type": "uint256"
        }
      ],
      "stateMutability": "view",
      "type": "function"
    }
  ],
  "bytecode": "0x60806040523480156200001157600080fd5b5060405162003fdc38038062003fdc8339818101604052810190620000379190620001fa565b818181600090816200004a9190620004ca565b5080600190816200005c9190620004ca565b5050505050620005b1565b6000604051905090565b600080fd5b600080fd5b600080fd5b600080fd5b6000601f19601f8301169050919050565b7f4e487b7100000000000000000000000000000000000000000000000000000000600052604160045260246000fd5b620000d08262000085565b810181811067ffffffffffffffff82111715620000f257620000f162000096565b5b80604052505050565b60006200010762000067565b9050620001158282620000c5565b919050565b600067ffffffffffffffff82111562000138576200013762000096565b5b620001438262000085565b9050602081019050919050565b60005b838110156200017057808201518184015260208101905062000153565b60008484015250505050565b6000620001936200018d846200011a565b620000fb565b905082815260208101848484011115620001b257620001b162000080565b5b620001bf84828562000150565b509392505050565b600082601f830112620001df57620001de6200007b565b5b8151620001f18482602086016200017c565b91505092915050565b6000806040838503121562000214576200021362000071565b5b600083015167ffffffffffffffff81111562000235576200023462000076565b5b6200024385828601620001c7565b925050602083015167ffffffffffffffff81111562000267576200026662000076565b5b6200027585828601620001c7565b9150509250929050565b600081519050919050565b7f4e487b7100000000000000000000000000000000000000000000000000000000600052602260045260246000fd5b60006002820490506001821680620002d257607f821691505b602082108103620002e857620002e76200028a565b5b50919050565b60008190508160005260206000209050919050565b60006020601f8301049050919050565b600082821b905092915050565b600060088302620003527fffffffffffffffffffffffffffffffffffffffffffffffffffffffffffffffff8262000313565b6200035e868362000313565b95508019841693508086168417925050509392505050565b6000819050919050565b6000819050919050565b6000620003ab620003a56200039f8462000376565b62000380565b62000376565b9050919050565b6000819050919050565b620003c7836200038a565b620003df620003d682620003b2565b84845462000320565b825550505050565b600090565b620003f6620003e7565b62000403818484620003bc565b505050565b5b818110156200042b576200041f600082620003ec565b60018101905062000409565b5050565b601f8211156200047a576200044481620002ee565b6200044f8462000303565b810160208510156200045f578190505b620004776200046e8562000303565b83018262000408565b50505b505050565b600082821c905092915050565b60006200049f600019846008026200047f565b1980831691505092915050565b6000620004ba83836200048c565b9150826002028217905092915050565b620004d5826200027f565b67ffffffffffffffff811115620004f157620004f062000096565b5b620004fd8254620002b9565b6200050a8282856200042f565b600060209050601f8311600181146200054257600084156200052d578287015190505b620005398582620004ac565b865550620005a9565b601f1984166200055286620002ee565b60005b828110156200057c5784890151825560018201915060208501945060208101905062000555565b868310156200059c578489015162000598601f8916826200048c565b8355505b6001600288020188555050505b505050505050565b613a1b80620005c16000396000f3fe608060405234801561001057600080fd5b506004361061014d5760003560e01c8063746b5d61116100c3578063a22cb4651161007c578063a22cb465146103fe578063b88d4fde1461041a578063c87b56dd14610436578063d744515f14610466578063db900b9d14610496578063e985e9c5146104c65761014d565b8063746b5d611461030457806381d0526d1461032057806384e968e6146103505780638b9cb90b1461038057806395d89b41146103b05780639e0bd808146103ce5761014d565b806323b872dd1161011557806323b872dd1461021f578063379607f51461023b57806342842e0e14610257578063576561d2146102735780636352211e146102a457806370a08231146102d45761014d565b806301ffc9a71461015257806303101bfd1461018257806306fdde03146101b5578063081812fc146101d3578063095ea7b314610203575b600080fd5b61016c6004803603810190610167919061258e565b6104f6565b60405161017991906125d6565b60405180910390f35b61019c60048036038101906101979190612627565b610570565b6040516101ac949392919061270d565b60405180910390f35b6101bd6105f8565b6040516101ca91906127e2565b60405180910390f35b6101ed60048036038101906101e89190612627565b61068a565b6040516101fa9190612825565b60405180910390f35b61021d6004803603810190610218919061286c565b6106d0565b005b610239600480360381019061023491906128ac565b6107e7565b005b61025560048036038101906102509190612627565b610847565b005b610271600480360381019061026c91906128ac565b610a07565b005b61028d60048036038101906102889190612627565b610a27565b60405161029b9291906128ff565b60405180910390f35b6102be60048036038101906102b99190612627565b610a8f565b6040516102cb9190612825565b60405180910390f35b6102ee60048036038101906102e99190612928565b610b15565b6040516102fb9190612955565b60405180910390f35b61031e600480360381019061031991906129da565b610bcc565b005b61033a60048036038101906103359190612627565b610e34565b6040516103479190612955565b60405180910390f35b61036a60048036038101906103659190612627565b610ea3565b6040516103779190612955565b60405180910390f35b61039a60048036038101906103959190612627565b610f0a565b6040516103a79190612825565b60405180910390f35b6103b8610f66565b6040516103c591906127e2565b60405180910390f35b6103e860048036038101906103e39190612627565b610ff8565b6040516103f59190612955565b60405180910390f35b61041860048036038101906104139190612a6d565b611072565b005b610434600480360381019061042f9190612be2565b611088565b005b610450600480360381019061044b9190612627565b6110ea565b60405161045d91906127e2565b60405180910390f35b610480600480360381019061047b9190612c65565b611152565b60405161048d9190612955565b60405180910390f35b6104b060048036038101906104ab9190612627565b6111c8565b6040516104bd9190612955565b60405180910390f35b6104e060048036038101906104db9190612ca5565b6111db565b6040516104ed91906125d6565b60405180910390f35b60007f7c89676d000000000000000000000000000000000000000000000000000000007bffffffffffffffffffffffffffffffffffffffffffffffffffffffff1916827bffffffffffffffffffffffffffffffffffffffffffffffffffffffff1916148061056957506105688261126f565b5b9050919050565b60076020528060005260406000206000915090508060000160009054906101000a900473ffffffffffffffffffffffffffffffffffffffff16908060010154908060020160009054906101000a90046fffffffffffffffffffffffffffffffff16908060020160109054906101000a90046fffffffffffffffffffffffffffffffff16905084565b60606000805461060790612d14565b80601f016020809104026020016040519081016040528092919081815260200182805461063390612d14565b80156106805780601f1061065557610100808354040283529160200191610680565b820191906000526020600020905b81548152906001019060200180831161066357829003601f168201915b5050505050905090565b600061069582611351565b6004600083815260200190815260200160002060009054906101000a900473ffffffffffffffffffffffffffffffffffffffff169050919050565b60006106db82610a8f565b90508073ffffffffffffffffffffffffffffffffffffffff168373ffffffffffffffffffffffffffffffffffffffff160361074b576040517f08c379a000000000000000000000000000000000000000000000000000000000815260040161074290612db7565b60405180910390fd5b8073ffffffffffffffffffffffffffffffffffffffff1661076a61139c565b73ffffffffffffffffffffffffffffffffffffffff16148061079957506107988161079361139c565b6111db565b5b6107d8576040517f08c379a00000000000000000000000000000000000000000000000000000000081526004016107cf90612e49565b60405180910390fd5b6107e283836113a4565b505050565b6107f86107f261139c565b8261145d565b610837576040517f08c379a000000000000000000000000000000000000000000000000000000000815260040161082e90612edb565b60405180910390fd5b6108428383836114f2565b505050565b80610851816117eb565b610890576040517f08c379a000000000000000000000000000000000000000000000000000000000815260040161088790612f47565b60405180910390fd5b3373ffffffffffffffffffffffffffffffffffffffff166108b083610a8f565b73ffffffffffffffffffffffffffffffffffffffff1614610906576040517f08c379a00000000000000000000000000000000000000000000000000000000081526004016108fd90612fb3565b60405180910390fd5b600061091183610ff8565b905060008111610956576040517f08c379a000000000000000000000000000000000000000000000000000000000815260040161094d9061301f565b60405180910390fd5b3373ffffffffffffffffffffffffffffffffffffffff16837fe97cee5a4c0549d3fdc81e322b718ddf0aeb3418ec87dce4f9a7fb28d117c3128360405161099d9190612955565b60405180910390a3806006600085815260200190815260200160002060008282546109c8919061306e565b92505081905550610a0233826109dd86610f0a565b73ffffffffffffffffffffffffffffffffffffffff1661182c9092919063ffffffff16565b505050565b610a2283838360405180602001604052806000815250611088565b505050565b60008082610a34816117eb565b610a73576040517f08c379a0000000000000000000000000000000000000000000000000000000008152600401610a6a90612f47565b60405180910390fd5b610a7c846118b2565b610a8585611900565b9250925050915091565b600080610a9b8361194e565b9050600073ffffffffffffffffffffffffffffffffffffffff168173ffffffffffffffffffffffffffffffffffffffff1603610b0c576040517f08c379a0000000000000000000000000000000000000000000000000000000008152600401610b03906130ee565b60405180910390fd5b80915050919050565b60008073ffffffffffffffffffffffffffffffffffffffff168273ffffffffffffffffffffffffffffffffffffffff1603610b85576040517f08c379a0000000000000000000000000000000000000000000000000000000008152600401610b7c90613180565b60405180910390fd5b600360008373ffffffffffffffffffffffffffffffffffffffff1673ffffffffffffffffffffffffffffffffffffffff168152602001908152602001600020549050919050565b600073ffffffffffffffffffffffffffffffffffffffff168473ffffffffffffffffffffffffffffffffffffffff1603610c3b576040517f08c379a0000000000000000000000000000000000000000000000000000000008152600401610c32906131ec565b60405180910390fd5b42826fffffffffffffffffffffffffffffffff1611610c8f576040517f08c379a0000000000000000000000000000000000000000000000000000000008152600401610c8690613258565b60405180910390fd5b6000600854905060405180608001604052808373ffffffffffffffffffffffffffffffffffffffff168152602001858152602001426fffffffffffffffffffffffffffffffff168152602001846fffffffffffffffffffffffffffffffff168152506007600083815260200190815260200160002060008201518160000160006101000a81548173ffffffffffffffffffffffffffffffffffffffff021916908373ffffffffffffffffffffffffffffffffffffffff1602179055506020820151816001015560408201518160020160006101000a8154816fffffffffffffffffffffffffffffffff02191690836fffffffffffffffffffffffffffffffff16021790555060608201518160020160106101000a8154816fffffffffffffffffffffffffffffffff02191690836fffffffffffffffffffffffffffffffff16021790555090505060086000815480929190610de990613278565b9190505550610df8858261198b565b610e2d333086610e0785610f0a565b73ffffffffffffffffffffffffffffffffffffffff16611ba8909392919063ffffffff16565b5050505050565b600081610e40816117eb565b610e7f576040517f08c379a0000000000000000000000000000000000000000000000000000000008152600401610e7690612f47565b60405180910390fd5b610e88836111c8565b610e9184611c31565b610e9b91906132c0565b915050919050565b600081610eaf816117eb565b610eee576040517f08c379a0000000000000000000000000000000000000000000000000000000008152600401610ee590612f47565b60405180910390fd5b6006600084815260200190815260200160002054915050919050565b600081610f16816117eb565b610f55576040517f08c379a0000000000000000000000000000000000000000000000000000000008152600401610f4c90612f47565b60405180910390fd5b610f5e83611c51565b915050919050565b606060018054610f7590612d14565b80601f0160208091040260200160405190810160405280929190818152602001828054610fa190612d14565b8015610fee5780601f10610fc357610100808354040283529160200191610fee565b820191906000526020600020905b815481529060010190602001808311610fd157829003601f168201915b5050505050905090565b600081611004816117eb565b611043576040517f08c379a000000000000000000000000000000000000000000000000000000000815260040161103a90612f47565b60405180910390fd5b6006600084815260200190815260200160002054611060846111c8565b61106a91906132c0565b915050919050565b61108461107d61139c565b8383611c91565b5050565b61109961109361139c565b8361145d565b6110d8576040517f08c379a00000000000000000000000000000000000000000000000000000000081526004016110cf90612edb565b60405180910390fd5b6110e484848484611dfd565b50505050565b60606110f582611351565b60006110ff611e59565b9050600081511161111f576040518060200160405280600081525061114a565b8061112984611e70565b60405160200161113a929190613330565b6040516020818303038152906040525b915050919050565b60008261115e816117eb565b61119d576040517f08c379a000000000000000000000000000000000000000000000000000000000815260040161119490612f47565b60405180910390fd5b6111a684611900565b83106111bc576111b584611c31565b91506111c1565b600091505b5092915050565b60006111d48242611152565b9050919050565b6000600560008473ffffffffffffffffffffffffffffffffffffffff1673ffffffffffffffffffffffffffffffffffffffff16815260200190815260200160002060008373ffffffffffffffffffffffffffffffffffffffff1673ffffffffffffffffffffffffffffffffffffffff16815260200190815260200160002060009054906101000a900460ff16905092915050565b60007f80ac58cd000000000000000000000000000000000000000000000000000000007bffffffffffffffffffffffffffffffffffffffffffffffffffffffff1916827bffffffffffffffffffffffffffffffffffffffffffffffffffffffff1916148061133a57507f5b5e139f000000000000000000000000000000000000000000000000000000007bffffffffffffffffffffffffffffffffffffffffffffffffffffffff1916827bffffffffffffffffffffffffffffffffffffffffffffffffffffffff1916145b8061134a575061134982611f3e565b5b9050919050565b61135a816117eb565b611399576040517f08c379a0000000000000000000000000000000000000000000000000000000008152600401611390906130ee565b60405180910390fd5b50565b600033905090565b816004600083815260200190815260200160002060006101000a81548173ffffffffffffffffffffffffffffffffffffffff021916908373ffffffffffffffffffffffffffffffffffffffff160217905550808273ffffffffffffffffffffffffffffffffffffffff1661141783610a8f565b73ffffffffffffffffffffffffffffffffffffffff167f8c5be1e5ebec7d5bd14f71427d1e84f3dd0314c0f7b2291e5b200ac8c7c3b92560405160405180910390a45050565b60008061146983610a8f565b90508073ffffffffffffffffffffffffffffffffffffffff168473ffffffffffffffffffffffffffffffffffffffff1614806114ab57506114aa81856111db565b5b806114e957508373ffffffffffffffffffffffffffffffffffffffff166114d18461068a565b73ffffffffffffffffffffffffffffffffffffffff16145b91505092915050565b8273ffffffffffffffffffffffffffffffffffffffff1661151282610a8f565b73ffffffffffffffffffffffffffffffffffffffff1614611568576040517f08c379a000000000000000000000000000000000000000000000000000000000815260040161155f906133c6565b60405180910390fd5b600073ffffffffffffffffffffffffffffffffffffffff168273ffffffffffffffffffffffffffffffffffffffff16036115d7576040517f08c379a00000000000000000000000000000000000000000000000000000000081526004016115ce90613458565b60405180910390fd5b6115e48383836001611fa8565b8273ffffffffffffffffffffffffffffffffffffffff1661160482610a8f565b73ffffffffffffffffffffffffffffffffffffffff161461165a576040517f08c379a0000000000000000000000000000000000000000000000000000000008152600401611651906133c6565b60405180910390fd5b6004600082815260200190815260200160002060006101000a81549073ffffffffffffffffffffffffffffffffffffffff02191690556001600360008573ffffffffffffffffffffffffffffffffffffffff1673ffffffffffffffffffffffffffffffffffffffff168152602001908152602001600020600082825403925050819055506001600360008473ffffffffffffffffffffffffffffffffffffffff1673ffffffffffffffffffffffffffffffffffffffff16815260200190815260200160002060008282540192505081905550816002600083815260200190815260200160002060006101000a81548173ffffffffffffffffffffffffffffffffffffffff021916908373ffffffffffffffffffffffffffffffffffffffff160217905550808273ffffffffffffffffffffffffffffffffffffffff168473ffffffffffffffffffffffffffffffffffffffff167fddf252ad1be2c89b69c2b068fc378daa952ba7f163c4a11628f55a4df523b3ef60405160405180910390a46117e68383836001611fae565b505050565b60008073ffffffffffffffffffffffffffffffffffffffff1661180d8361194e565b73ffffffffffffffffffffffffffffffffffffffff1614159050919050565b6118ad8363a9059cbb60e01b848460405160240161184b929190613478565b604051602081830303815290604052907bffffffffffffffffffffffffffffffffffffffffffffffffffffffff19166020820180517bffffffffffffffffffffffffffffffffffffffffffffffffffffffff8381831617835250505050611fb4565b505050565b60006007600083815260200190815260200160002060020160009054906101000a90046fffffffffffffffffffffffffffffffff166fffffffffffffffffffffffffffffffff169050919050565b60006007600083815260200190815260200160002060020160109054906101000a90046fffffffffffffffffffffffffffffffff166fffffffffffffffffffffffffffffffff169050919050565b60006002600083815260200190815260200160002060009054906101000a900473ffffffffffffffffffffffffffffffffffffffff169050919050565b600073ffffffffffffffffffffffffffffffffffffffff168273ffffffffffffffffffffffffffffffffffffffff16036119fa576040517f08c379a00000000000000000000000000000000000000000000000000000000081526004016119f1906134ed565b60405180910390fd5b611a03816117eb565b15611a43576040517f08c379a0000000000000000000000000000000000000000000000000000000008152600401611a3a90613559565b60405180910390fd5b611a51600083836001611fa8565b611a5a816117eb565b15611a9a576040517f08c379a0000000000000000000000000000000000000000000000000000000008152600401611a9190613559565b60405180910390fd5b6001600360008473ffffffffffffffffffffffffffffffffffffffff1673ffffffffffffffffffffffffffffffffffffffff16815260200190815260200160002060008282540192505081905550816002600083815260200190815260200160002060006101000a81548173ffffffffffffffffffffffffffffffffffffffff021916908373ffffffffffffffffffffffffffffffffffffffff160217905550808273ffffffffffffffffffffffffffffffffffffffff16600073ffffffffffffffffffffffffffffffffffffffff167fddf252ad1be2c89b69c2b068fc378daa952ba7f163c4a11628f55a4df523b3ef60405160405180910390a4611ba4600083836001611fae565b5050565b611c2b846323b872dd60e01b858585604051602401611bc993929190613579565b604051602081830303815290604052907bffffffffffffffffffffffffffffffffffffffffffffffffffffffff19166020820180517bffffffffffffffffffffffffffffffffffffffffffffffffffffffff8381831617835250505050611fb4565b50505050565b600060076000838152602001908152602001600020600101549050919050565b60006007600083815260200190815260200160002060000160009054906101000a900473ffffffffffffffffffffffffffffffffffffffff169050919050565b8173ffffffffffffffffffffffffffffffffffffffff168373ffffffffffffffffffffffffffffffffffffffff1603611cff576040517f08c379a0000000000000000000000000000000000000000000000000000000008152600401611cf6906135fc565b60405180910390fd5b80600560008573ffffffffffffffffffffffffffffffffffffffff1673ffffffffffffffffffffffffffffffffffffffff16815260200190815260200160002060008473ffffffffffffffffffffffffffffffffffffffff1673ffffffffffffffffffffffffffffffffffffffff16815260200190815260200160002060006101000a81548160ff0219169083151502179055508173ffffffffffffffffffffffffffffffffffffffff168373ffffffffffffffffffffffffffffffffffffffff167f17307eab39ab6107e8899845ad3d59bd9653f200f220920489ca2b5937696c3183604051611df091906125d6565b60405180910390a3505050565b611e088484846114f2565b611e148484848461207b565b611e53576040517f08c379a0000000000000000000000000000000000000000000000000000000008152600401611e4a9061368e565b60405180910390fd5b50505050565b606060405180602001604052806000815250905090565b606060006001611e7f84612202565b01905060008167ffffffffffffffff811115611e9e57611e9d612ab7565b5b6040519080825280601f01601f191660200182016040528015611ed05781602001600182028036833780820191505090505b509050600082602001820190505b600115611f33578080600190039150507f3031323334353637383961626364656600000000000000000000000000000000600a86061a8153600a8581611f2757611f266136ae565b5b04945060008503611ede575b819350505050919050565b60007f01ffc9a7000000000000000000000000000000000000000000000000000000007bffffffffffffffffffffffffffffffffffffffffffffffffffffffff1916827bffffffffffffffffffffffffffffffffffffffffffffffffffffffff1916149050919050565b50505050565b50505050565b6000612016826040518060400160405280602081526020017f5361666545524332303a206c6f772d6c6576656c2063616c6c206661696c65648152508573ffffffffffffffffffffffffffffffffffffffff166123559092919063ffffffff16565b9050600081511115612076578080602001905181019061203691906136f2565b612075576040517f08c379a000000000000000000000000000000000000000000000000000000000815260040161206c90613791565b60405180910390fd5b5b505050565b600061209c8473ffffffffffffffffffffffffffffffffffffffff1661236d565b156121f5578373ffffffffffffffffffffffffffffffffffffffff1663150b7a026120c561139c565b8786866040518563ffffffff1660e01b81526004016120e79493929190613806565b6020604051808303816000875af192505050801561212357506040513d601f19601f820116820180604052508101906121209190613867565b60015b6121a5573d8060008114612153576040519150601f19603f3d011682016040523d82523d6000602084013e612158565b606091505b50600081510361219d576040517f08c379a00000000000000000000000000000000000000000000000000000000081526004016121949061368e565b60405180910390fd5b805181602001fd5b63150b7a0260e01b7bffffffffffffffffffffffffffffffffffffffffffffffffffffffff1916817bffffffffffffffffffffffffffffffffffffffffffffffffffffffff1916149150506121fa565b600190505b949350505050565b600080600090507a184f03e93ff9f4daa797ed6e38ed64bf6a1f0100000000000000008310612260577a184f03e93ff9f4daa797ed6e38ed64bf6a1f0100000000000000008381612256576122556136ae565b5b0492506040810190505b6d04ee2d6d415b85acef8100000000831061229d576d04ee2d6d415b85acef81000000008381612293576122926136ae565b5b0492506020810190505b662386f26fc1000083106122cc57662386f26fc1000083816122c2576122c16136ae565b5b0492506010810190505b6305f5e10083106122f5576305f5e10083816122eb576122ea6136ae565b5b0492506008810190505b612710831061231a5761271083816123105761230f6136ae565b5b0492506004810190505b6064831061233d5760648381612333576123326136ae565b5b0492506002810190505b600a831061234c576001810190505b80915050919050565b60606123648484600085612390565b90509392505050565b6000808273ffffffffffffffffffffffffffffffffffffffff163b119050919050565b6060824710156123d5576040517f08c379a00000000000000000000000000000000000000000000000000000000081526004016123cc90613906565b60405180910390fd5b6000808673ffffffffffffffffffffffffffffffffffffffff1685876040516123fe9190613962565b60006040518083038185875af1925050503d806000811461243b576040519150601f19603f3d011682016040523d82523d6000602084013e612440565b606091505b50915091506124518783838761245d565b92505050949350505050565b606083156124bf5760008351036124b7576124778561236d565b6124b6576040517f08c379a00000000000000000000000000000000000000000000000000000000081526004016124ad906139c5565b60405180910390fd5b5b8290506124ca565b6124c983836124d2565b5b949350505050565b6000825111156124e55781518083602001fd5b806040517f08c379a000000000000000000000000000000000000000000000000000000000815260040161251991906127e2565b60405180910390fd5b6000604051905090565b600080fd5b600080fd5b60007fffffffff0000000000000000000000000000000000000000000000000000000082169050919050565b61256b81612536565b811461257657600080fd5b50565b60008135905061258881612562565b92915050565b6000602082840312156125a4576125a361252c565b5b60006125b284828501612579565b91505092915050565b60008115159050919050565b6125d0816125bb565b82525050565b60006020820190506125eb60008301846125c7565b92915050565b6000819050919050565b612604816125f1565b811461260f57600080fd5b50565b600081359050612621816125fb565b92915050565b60006020828403121561263d5761263c61252c565b5b600061264b84828501612612565b91505092915050565b600073ffffffffffffffffffffffffffffffffffffffff82169050919050565b6000819050919050565b600061269961269461268f84612654565b612674565b612654565b9050919050565b60006126ab8261267e565b9050919050565b60006126bd826126a0565b9050919050565b6126cd816126b2565b82525050565b6126dc816125f1565b82525050565b60006fffffffffffffffffffffffffffffffff82169050919050565b612707816126e2565b82525050565b600060808201905061272260008301876126c4565b61272f60208301866126d3565b61273c60408301856126fe565b61274960608301846126fe565b95945050505050565b600081519050919050565b600082825260208201905092915050565b60005b8381101561278c578082015181840152602081019050612771565b60008484015250505050565b6000601f19601f8301169050919050565b60006127b482612752565b6127be818561275d565b93506127ce81856020860161276e565b6127d781612798565b840191505092915050565b600060208201905081810360008301526127fc81846127a9565b905092915050565b600061280f82612654565b9050919050565b61281f81612804565b82525050565b600060208201905061283a6000830184612816565b92915050565b61284981612804565b811461285457600080fd5b50565b60008135905061286681612840565b92915050565b600080604083850312156128835761288261252c565b5b600061289185828601612857565b92505060206128a285828601612612565b9150509250929050565b6000806000606084860312156128c5576128c461252c565b5b60006128d386828701612857565b93505060206128e486828701612857565b92505060406128f586828701612612565b9150509250925092565b600060408201905061291460008301856126d3565b61292160208301846126d3565b9392505050565b60006020828403121561293e5761293d61252c565b5b600061294c84828501612857565b91505092915050565b600060208201905061296a60008301846126d3565b92915050565b612979816126e2565b811461298457600080fd5b50565b60008135905061299681612970565b92915050565b60006129a782612804565b9050919050565b6129b78161299c565b81146129c257600080fd5b50565b6000813590506129d4816129ae565b92915050565b600080600080608085870312156129f4576129f361252c565b5b6000612a0287828801612857565b9450506020612a1387828801612612565b9350506040612a2487828801612987565b9250506060612a35878288016129c5565b91505092959194509250565b612a4a816125bb565b8114612a5557600080fd5b50565b600081359050612a6781612a41565b92915050565b60008060408385031215612a8457612a8361252c565b5b6000612a9285828601612857565b9250506020612aa385828601612a58565b9150509250929050565b600080fd5b600080fd5b7f4e487b7100000000000000000000000000000000000000000000000000000000600052604160045260246000fd5b612aef82612798565b810181811067ffffffffffffffff82111715612b0e57612b0d612ab7565b5b80604052505050565b6000612b21612522565b9050612b2d8282612ae6565b919050565b600067ffffffffffffffff821115612b4d57612b4c612ab7565b5b612b5682612798565b9050602081019050919050565b82818337600083830152505050565b6000612b85612b8084612b32565b612b17565b905082815260208101848484011115612ba157612ba0612ab2565b5b612bac848285612b63565b509392505050565b600082601f830112612bc957612bc8612aad565b5b8135612bd9848260208601612b72565b91505092915050565b60008060008060808587031215612bfc57612bfb61252c565b5b6000612c0a87828801612857565b9450506020612c1b87828801612857565b9350506040612c2c87828801612612565b925050606085013567ffffffffffffffff811115612c4d57612c4c612531565b5b612c5987828801612bb4565b91505092959194509250565b60008060408385031215612c7c57612c7b61252c565b5b6000612c8a85828601612612565b9250506020612c9b85828601612612565b9150509250929050565b60008060408385031215612cbc57612cbb61252c565b5b6000612cca85828601612857565b9250506020612cdb85828601612857565b9150509250929050565b7f4e487b7100000000000000000000000000000000000000000000000000000000600052602260045260246000fd5b60006002820490506001821680612d2c57607f821691505b602082108103612d3f57612d3e612ce5565b5b50919050565b7f4552433732313a20617070726f76616c20746f2063757272656e74206f776e6560008201527f7200000000000000000000000000000000000000000000000000000000000000602082015250565b6000612da160218361275d565b9150612dac82612d45565b604082019050919050565b60006020820190508181036000830152612dd081612d94565b9050919050565b7f4552433732313a20617070726f76652063616c6c6572206973206e6f7420746f60008201527f6b656e206f776e6572206f7220617070726f76656420666f7220616c6c000000602082015250565b6000612e33603d8361275d565b9150612e3e82612dd7565b604082019050919050565b60006020820190508181036000830152612e6281612e26565b9050919050565b7f4552433732313a2063616c6c6572206973206e6f7420746f6b656e206f776e6560008201527f72206f7220617070726f76656400000000000000000000000000000000000000602082015250565b6000612ec5602d8361275d565b9150612ed082612e69565b604082019050919050565b60006020820190508181036000830152612ef481612eb8565b9050919050565b7f455243353732353a20696e76616c696420746f6b656e20494400000000000000600082015250565b6000612f3160198361275d565b9150612f3c82612efb565b602082019050919050565b60006020820190508181036000830152612f6081612f24565b9050919050565b7f4e6f74206f776e6572206f66204e465400000000000000000000000000000000600082015250565b6000612f9d60108361275d565b9150612fa882612f67565b602082019050919050565b60006020820190508181036000830152612fcc81612f90565b9050919050565b7f455243353732353a204e6f2070656e64696e67207061796f7574000000000000600082015250565b6000613009601a8361275d565b915061301482612fd3565b602082019050919050565b6000602082019050818103600083015261303881612ffc565b9050919050565b7f4e487b7100000000000000000000000000000000000000000000000000000000600052601160045260246000fd5b6000613079826125f1565b9150613084836125f1565b925082820190508082111561309c5761309b61303f565b5b92915050565b7f4552433732313a20696e76616c696420746f6b656e2049440000000000000000600082015250565b60006130d860188361275d565b91506130e3826130a2565b602082019050919050565b60006020820190508181036000830152613107816130cb565b9050919050565b7f4552433732313a2061646472657373207a65726f206973206e6f74206120766160008201527f6c6964206f776e65720000000000000000000000000000000000000000000000602082015250565b600061316a60298361275d565b91506131758261310e565b604082019050919050565b600060208201905081810360008301526131998161315d565b9050919050565b7f746f2063616e6e6f742062652061646472657373203000000000000000000000600082015250565b60006131d660168361275d565b91506131e1826131a0565b602082019050919050565b60006020820190508181036000830152613205816131c9565b9050919050565b7f72656c65617365206d75737420626520696e2066757475726500000000000000600082015250565b600061324260198361275d565b915061324d8261320c565b602082019050919050565b6000602082019050818103600083015261327181613235565b9050919050565b6000613283826125f1565b91507fffffffffffffffffffffffffffffffffffffffffffffffffffffffffffffffff82036132b5576132b461303f565b5b600182019050919050565b60006132cb826125f1565b91506132d6836125f1565b92508282039050818111156132ee576132ed61303f565b5b92915050565b600081905092915050565b600061330a82612752565b61331481856132f4565b935061332481856020860161276e565b80840191505092915050565b600061333c82856132ff565b915061334882846132ff565b91508190509392505050565b7f4552433732313a207472616e736665722066726f6d20696e636f72726563742060008201527f6f776e6572000000000000000000000000000000000000000000000000000000602082015250565b60006133b060258361275d565b91506133bb82613354565b604082019050919050565b600060208201905081810360008301526133df816133a3565b9050919050565b7f4552433732313a207472616e7366657220746f20746865207a65726f2061646460008201527f7265737300000000000000000000000000000000000000000000000000000000602082015250565b600061344260248361275d565b915061344d826133e6565b604082019050919050565b6000602082019050818103600083015261347181613435565b9050919050565b600060408201905061348d6000830185612816565b61349a60208301846126d3565b9392505050565b7f4552433732313a206d696e7420746f20746865207a65726f2061646472657373600082015250565b60006134d760208361275d565b91506134e2826134a1565b602082019050919050565b60006020820190508181036000830152613506816134ca565b9050919050565b7f4552433732313a20746f6b656e20616c7265616479206d696e74656400000000600082015250565b6000613543601c8361275d565b915061354e8261350d565b602082019050919050565b6000602082019050818103600083015261357281613536565b9050919050565b600060608201905061358e6000830186612816565b61359b6020830185612816565b6135a860408301846126d3565b949350505050565b7f4552433732313a20617070726f766520746f2063616c6c657200000000000000600082015250565b60006135e660198361275d565b91506135f1826135b0565b602082019050919050565b60006020820190508181036000830152613615816135d9565b9050919050565b7f4552433732313a207472616e7366657220746f206e6f6e20455243373231526560008201527f63656976657220696d706c656d656e7465720000000000000000000000000000602082015250565b600061367860328361275d565b91506136838261361c565b604082019050919050565b600060208201905081810360008301526136a78161366b565b9050919050565b7f4e487b7100000000000000000000000000000000000000000000000000000000600052601260045260246000fd5b6000815190506136ec81612a41565b92915050565b6000602082840312156137085761370761252c565b5b6000613716848285016136dd565b91505092915050565b7f5361666545524332303a204552433230206f7065726174696f6e20646964206e60008201527f6f74207375636365656400000000000000000000000000000000000000000000602082015250565b600061377b602a8361275d565b91506137868261371f565b604082019050919050565b600060208201905081810360008301526137aa8161376e565b9050919050565b600081519050919050565b600082825260208201905092915050565b60006137d8826137b1565b6137e281856137bc565b93506137f281856020860161276e565b6137fb81612798565b840191505092915050565b600060808201905061381b6000830187612816565b6138286020830186612816565b61383560408301856126d3565b818103606083015261384781846137cd565b905095945050505050565b60008151905061386181612562565b92915050565b60006020828403121561387d5761387c61252c565b5b600061388b84828501613852565b91505092915050565b7f416464726573733a20696e73756666696369656e742062616c616e636520666f60008201527f722063616c6c0000000000000000000000000000000000000000000000000000602082015250565b60006138f060268361275d565b91506138fb82613894565b604082019050919050565b6000602082019050818103600083015261391f816138e3565b9050919050565b600081905092915050565b600061393c826137b1565b6139468185613926565b935061395681856020860161276e565b80840191505092915050565b600061396e8284613931565b915081905092915050565b7f416464726573733a2063616c6c20746f206e6f6e2d636f6e7472616374000000600082015250565b60006139af601d8361275d565b91506139ba82613979565b602082019050919050565b600060208201905081810360008301526139de816139a2565b905091905056fea2646970667358221220edbc947a635537fda1db652c421f31ad5f762a8c920ab72e4f2409561f0eca2c64736f6c63430008110033",
  "linkReferences": {},
  "deployedLinkReferences": {}
}