{
  "_format": "hh-sol-artifact-1",
  "contractName": "VestingNFT",
  "sourceName": "contracts/reference/VestingNFT.sol",
  "abi": [
    {
      "inputs": [
        {
          "internalType": "string",
          "name": "name",
          "type": "string"
        },
        {
          "internalType": "string",
          "name": "symbol",
          "type": "string"
        }
      ],
      "stateMutability": "nonpayable",
      "type": "constructor"
    },
    {
      "anonymous": false,
      "inputs": [
        {
          "indexed": true,
          "internalType": "address",
          "name": "owner",
          "type": "address"
        },
        {
          "indexed": true,
          "internalType": "address",
          "name": "approved",
          "type": "address"
        },
        {
          "indexed": true,
          "internalType": "uint256",
          "name": "tokenId",
          "type": "uint256"
        }
      ],
      "name": "Approval",
      "type": "event"
    },
    {
      "anonymous": false,
      "inputs": [
        {
          "indexed": true,
          "internalType": "address",
          "name": "owner",
          "type": "address"
        },
        {
          "indexed": true,
          "internalType": "address",
          "name": "operator",
          "type": "address"
        },
        {
          "indexed": false,
          "internalType": "bool",
          "name": "approved",
          "type": "bool"
        }
      ],
      "name": "ApprovalForAll",
      "type": "event"
    },
    {
      "anonymous": false,
      "inputs": [
        {
          "indexed": true,
          "internalType": "uint256",
          "name": "tokenId",
          "type": "uint256"
        },
        {
          "indexed": true,
          "internalType": "address",
          "name": "recipient",
          "type": "address"
        },
        {
          "indexed": false,
          "internalType": "uint256",
          "name": "_claimAmount",
          "type": "uint256"
        }
      ],
      "name": "PayoutClaimed",
      "type": "event"
    },
    {
      "anonymous": false,
      "inputs": [
        {
          "indexed": true,
          "internalType": "address",
          "name": "from",
          "type": "address"
        },
        {
          "indexed": true,
          "internalType": "address",
          "name": "to",
          "type": "address"
        },
        {
          "indexed": true,
          "internalType": "uint256",
          "name": "tokenId",
          "type": "uint256"
        }
      ],
      "name": "Transfer",
      "type": "event"
    },
    {
      "inputs": [
        {
          "internalType": "address",
          "name": "to",
          "type": "address"
        },
        {
          "internalType": "uint256",
          "name": "tokenId",
          "type": "uint256"
        }
      ],
      "name": "approve",
      "outputs": [],
      "stateMutability": "nonpayable",
      "type": "function"
    },
    {
      "inputs": [
        {
          "internalType": "address",
          "name": "owner",
          "type": "address"
        }
      ],
      "name": "balanceOf",
      "outputs": [
        {
          "internalType": "uint256",
          "name": "",
          "type": "uint256"
        }
      ],
      "stateMutability": "view",
      "type": "function"
    },
    {
      "inputs": [
        {
          "internalType": "uint256",
          "name": "tokenId",
          "type": "uint256"
        }
      ],
      "name": "claim",
      "outputs": [
        {
          "internalType": "uint256",
          "name": "amountClaimed",
          "type": "uint256"
        }
      ],
      "stateMutability": "nonpayable",
      "type": "function"
    },
    {
      "inputs": [
        {
          "internalType": "uint256",
          "name": "tokenId",
          "type": "uint256"
        }
      ],
      "name": "claimablePayout",
      "outputs": [
        {
          "internalType": "uint256",
          "name": "payout",
          "type": "uint256"
        }
      ],
      "stateMutability": "view",
      "type": "function"
    },
    {
      "inputs": [
        {
          "internalType": "address",
          "name": "to",
          "type": "address"
        },
        {
          "internalType": "uint256",
          "name": "amount",
          "type": "uint256"
        },
        {
          "internalType": "uint128",
          "name": "releaseTimestamp",
          "type": "uint128"
        },
        {
          "internalType": "contract IERC20",
          "name": "token",
          "type": "address"
        }
      ],
      "name": "create",
      "outputs": [],
      "stateMutability": "nonpayable",
      "type": "function"
    },
    {
      "inputs": [
        {
          "internalType": "uint256",
          "name": "tokenId",
          "type": "uint256"
        }
      ],
      "name": "getApproved",
      "outputs": [
        {
          "internalType": "address",
          "name": "",
          "type": "address"
        }
      ],
      "stateMutability": "view",
      "type": "function"
    },
    {
      "inputs": [
        {
          "internalType": "address",
          "name": "owner",
          "type": "address"
        },
        {
          "internalType": "address",
          "name": "operator",
          "type": "address"
        }
      ],
      "name": "isApprovedForAll",
      "outputs": [
        {
          "internalType": "bool",
          "name": "",
          "type": "bool"
        }
      ],
      "stateMutability": "view",
      "type": "function"
    },
    {
      "inputs": [],
      "name": "name",
      "outputs": [
        {
          "internalType": "string",
          "name": "",
          "type": "string"
        }
      ],
      "stateMutability": "view",
      "type": "function"
    },
    {
      "inputs": [
        {
          "internalType": "uint256",
          "name": "tokenId",
          "type": "uint256"
        }
      ],
      "name": "ownerOf",
      "outputs": [
        {
          "internalType": "address",
          "name": "",
          "type": "address"
        }
      ],
      "stateMutability": "view",
      "type": "function"
    },
    {
      "inputs": [
        {
          "internalType": "uint256",
          "name": "tokenId",
          "type": "uint256"
        }
      ],
      "name": "payoutToken",
      "outputs": [
        {
          "internalType": "address",
          "name": "token",
          "type": "address"
        }
      ],
      "stateMutability": "view",
      "type": "function"
    },
    {
      "inputs": [
        {
          "internalType": "address",
          "name": "from",
          "type": "address"
        },
        {
          "internalType": "address",
          "name": "to",
          "type": "address"
        },
        {
          "internalType": "uint256",
          "name": "tokenId",
          "type": "uint256"
        }
      ],
      "name": "safeTransferFrom",
      "outputs": [],
      "stateMutability": "nonpayable",
      "type": "function"
    },
    {
      "inputs": [
        {
          "internalType": "address",
          "name": "from",
          "type": "address"
        },
        {
          "internalType": "address",
          "name": "to",
          "type": "address"
        },
        {
          "internalType": "uint256",
          "name": "tokenId",
          "type": "uint256"
        },
        {
          "internalType": "bytes",
          "name": "data",
          "type": "bytes"
        }
      ],
      "name": "safeTransferFrom",
      "outputs": [],
      "stateMutability": "nonpayable",
      "type": "function"
    },
    {
      "inputs": [
        {
          "internalType": "address",
          "name": "operator",
          "type": "address"
        },
        {
          "internalType": "bool",
          "name": "approved",
          "type": "bool"
        }
      ],
      "name": "setApprovalForAll",
      "outputs": [],
      "stateMutability": "nonpayable",
      "type": "function"
    },
    {
      "inputs": [
        {
          "internalType": "bytes4",
          "name": "interfaceId",
          "type": "bytes4"
        }
      ],
      "name": "supportsInterface",
      "outputs": [
        {
          "internalType": "bool",
          "name": "supported",
          "type": "bool"
        }
      ],
      "stateMutability": "view",
      "type": "function"
    },
    {
      "inputs": [],
      "name": "symbol",
      "outputs": [
        {
          "internalType": "string",
          "name": "",
          "type": "string"
        }
      ],
      "stateMutability": "view",
      "type": "function"
    },
    {
      "inputs": [
        {
          "internalType": "uint256",
          "name": "tokenId",
          "type": "uint256"
        }
      ],
      "name": "tokenURI",
      "outputs": [
        {
          "internalType": "string",
          "name": "",
          "type": "string"
        }
      ],
      "stateMutability": "view",
      "type": "function"
    },
    {
      "inputs": [
        {
          "internalType": "address",
          "name": "from",
          "type": "address"
        },
        {
          "internalType": "address",
          "name": "to",
          "type": "address"
        },
        {
          "internalType": "uint256",
          "name": "tokenId",
          "type": "uint256"
        }
      ],
      "name": "transferFrom",
      "outputs": [],
      "stateMutability": "nonpayable",
      "type": "function"
    },
    {
      "inputs": [
        {
          "internalType": "uint256",
          "name": "",
          "type": "uint256"
        }
      ],
      "name": "vestDetails",
      "outputs": [
        {
          "internalType": "contract IERC20",
          "name": "payoutToken",
          "type": "address"
        },
        {
          "internalType": "uint256",
          "name": "payout",
          "type": "uint256"
        },
        {
          "internalType": "uint128",
          "name": "startTime",
          "type": "uint128"
        },
        {
          "internalType": "uint128",
          "name": "endTime",
          "type": "uint128"
        }
      ],
      "stateMutability": "view",
      "type": "function"
    },
    {
      "inputs": [
        {
          "internalType": "uint256",
          "name": "tokenId",
          "type": "uint256"
        }
      ],
      "name": "vestedPayout",
      "outputs": [
        {
          "internalType": "uint256",
          "name": "payout",
          "type": "uint256"
        }
      ],
      "stateMutability": "view",
      "type": "function"
    },
    {
      "inputs": [
        {
          "internalType": "uint256",
          "name": "tokenId",
          "type": "uint256"
        },
        {
          "internalType": "uint256",
          "name": "timestamp",
          "type": "uint256"
        }
      ],
      "name": "vestedPayoutAtTime",
      "outputs": [
        {
          "internalType": "uint256",
          "name": "payout",
          "type": "uint256"
        }
      ],
      "stateMutability": "view",
      "type": "function"
    },
    {
      "inputs": [
        {
          "internalType": "uint256",
          "name": "tokenId",
          "type": "uint256"
        }
      ],
      "name": "vestingPayout",
      "outputs": [
        {
          "internalType": "uint256",
          "name": "payout",
          "type": "uint256"
        }
      ],
      "stateMutability": "view",
      "type": "function"
    },
    {
      "inputs": [
        {
          "internalType": "uint256",
          "name": "tokenId",
          "type": "uint256"
        }
      ],
      "name": "vestingPeriod",
      "outputs": [
        {
          "internalType": "uint256",
          "name": "vestingStart",
          "type": "uint256"
        },
        {
          "internalType": "uint256",
          "name": "vestingEnd",
          "type": "uint256"
        }
      ],
      "stateMutability": "view",
      "type": "function"
    }
  ],
  "bytecode": "0x60806040523480156200001157600080fd5b5060405162003d8438038062003d848339818101604052810190620000379190620001fa565b818181600090816200004a9190620004ca565b5080600190816200005c9190620004ca565b5050505050620005b1565b6000604051905090565b600080fd5b600080fd5b600080fd5b600080fd5b6000601f19601f8301169050919050565b7f4e487b7100000000000000000000000000000000000000000000000000000000600052604160045260246000fd5b620000d08262000085565b810181811067ffffffffffffffff82111715620000f257620000f162000096565b5b80604052505050565b60006200010762000067565b9050620001158282620000c5565b919050565b600067ffffffffffffffff82111562000138576200013762000096565b5b620001438262000085565b9050602081019050919050565b60005b838110156200017057808201518184015260208101905062000153565b60008484015250505050565b6000620001936200018d846200011a565b620000fb565b905082815260208101848484011115620001b257620001b162000080565b5b620001bf84828562000150565b509392505050565b600082601f830112620001df57620001de6200007b565b5b8151620001f18482602086016200017c565b91505092915050565b6000806040838503121562000214576200021362000071565b5b600083015167ffffffffffffffff81111562000235576200023462000076565b5b6200024385828601620001c7565b925050602083015167ffffffffffffffff81111562000267576200026662000076565b5b6200027585828601620001c7565b9150509250929050565b600081519050919050565b7f4e487b7100000000000000000000000000000000000000000000000000000000600052602260045260246000fd5b60006002820490506001821680620002d257607f821691505b602082108103620002e857620002e76200028a565b5b50919050565b60008190508160005260206000209050919050565b60006020601f8301049050919050565b600082821b905092915050565b600060088302620003527fffffffffffffffffffffffffffffffffffffffffffffffffffffffffffffffff8262000313565b6200035e868362000313565b95508019841693508086168417925050509392505050565b6000819050919050565b6000819050919050565b6000620003ab620003a56200039f8462000376565b62000380565b62000376565b9050919050565b6000819050919050565b620003c7836200038a565b620003df620003d682620003b2565b84845462000320565b825550505050565b600090565b620003f6620003e7565b62000403818484620003bc565b505050565b5b818110156200042b576200041f600082620003ec565b60018101905062000409565b5050565b601f8211156200047a576200044481620002ee565b6200044f8462000303565b810160208510156200045f578190505b620004776200046e8562000303565b83018262000408565b50505b505050565b600082821c905092915050565b60006200049f600019846008026200047f565b1980831691505092915050565b6000620004ba83836200048c565b9150826002028217905092915050565b620004d5826200027f565b67ffffffffffffffff811115620004f157620004f062000096565b5b620004fd8254620002b9565b6200050a8282856200042f565b600060209050601f8311600181146200054257600084156200052d578287015190505b620005398582620004ac565b865550620005a9565b601f1984166200055286620002ee565b60005b828110156200057c5784890151825560018201915060208501945060208101905062000555565b868310156200059c578489015162000598601f8916826200048c565b8355505b6001600288020188555050505b505050505050565b6137c380620005c16000396000f3fe608060405234801561001057600080fd5b50600436106101425760003560e01c8063746b5d61116100b8578063a22cb4651161007c578063a22cb465146103d7578063b88d4fde146103f3578063c87b56dd1461040f578063d744515f1461043f578063db900b9d1461046f578063e985e9c51461049f57610142565b8063746b5d611461030d57806381d0526d146103295780638b9cb90b1461035957806395d89b41146103895780639e0bd808146103a757610142565b806323b872dd1161010a57806323b872dd14610214578063379607f51461023057806342842e0e14610260578063576561d21461027c5780636352211e146102ad57806370a08231146102dd57610142565b806301ffc9a71461014757806303101bfd1461017757806306fdde03146101aa578063081812fc146101c8578063095ea7b3146101f8575b600080fd5b610161600480360381019061015c9190612311565b6104cf565b60405161016e9190612359565b60405180910390f35b610191600480360381019061018c91906123aa565b610549565b6040516101a19493929190612490565b60405180910390f35b6101b26105d1565b6040516101bf9190612565565b60405180910390f35b6101e260048036038101906101dd91906123aa565b610663565b6040516101ef91906125a8565b60405180910390f35b610212600480360381019061020d91906125ef565b6106a9565b005b61022e6004803603810190610229919061262f565b6107c0565b005b61024a600480360381019061024591906123aa565b610820565b6040516102579190612682565b60405180910390f35b61027a6004803603810190610275919061262f565b6109e1565b005b610296600480360381019061029191906123aa565b610a01565b6040516102a492919061269d565b60405180910390f35b6102c760048036038101906102c291906123aa565b610a69565b6040516102d491906125a8565b60405180910390f35b6102f760048036038101906102f291906126c6565b610b1a565b6040516103049190612682565b60405180910390f35b6103276004803603810190610322919061275d565b610bd1565b005b610343600480360381019061033e91906123aa565b610de5565b6040516103509190612682565b60405180910390f35b610373600480360381019061036e91906123aa565b610e54565b60405161038091906125a8565b60405180910390f35b610391610eb0565b60405161039e9190612565565b60405180910390f35b6103c160048036038101906103bc91906123aa565b610f42565b6040516103ce9190612682565b60405180910390f35b6103f160048036038101906103ec91906127f0565b610fbc565b005b61040d60048036038101906104089190612965565b610fd2565b005b610429600480360381019061042491906123aa565b611034565b6040516104369190612565565b60405180910390f35b610459600480360381019061045491906129e8565b61109c565b6040516104669190612682565b60405180910390f35b610489600480360381019061048491906123aa565b61110e565b6040516104969190612682565b60405180910390f35b6104b960048036038101906104b49190612a28565b611121565b6040516104c69190612359565b60405180910390f35b60007ff8600f8b000000000000000000000000000000000000000000000000000000007bffffffffffffffffffffffffffffffffffffffffffffffffffffffff1916827bffffffffffffffffffffffffffffffffffffffffffffffffffffffff191614806105425750610541826111b5565b5b9050919050565b60076020528060005260406000206000915090508060000160009054906101000a900473ffffffffffffffffffffffffffffffffffffffff16908060010154908060020160009054906101000a90046fffffffffffffffffffffffffffffffff16908060020160109054906101000a90046fffffffffffffffffffffffffffffffff16905084565b6060600080546105e090612a97565b80601f016020809104026020016040519081016040528092919081815260200182805461060c90612a97565b80156106595780601f1061062e57610100808354040283529160200191610659565b820191906000526020600020905b81548152906001019060200180831161063c57829003601f168201915b5050505050905090565b600061066e82611297565b6004600083815260200190815260200160002060009054906101000a900473ffffffffffffffffffffffffffffffffffffffff169050919050565b60006106b482610a69565b90508073ffffffffffffffffffffffffffffffffffffffff168373ffffffffffffffffffffffffffffffffffffffff1603610724576040517f08c379a000000000000000000000000000000000000000000000000000000000815260040161071b90612b3a565b60405180910390fd5b8073ffffffffffffffffffffffffffffffffffffffff166107436112e2565b73ffffffffffffffffffffffffffffffffffffffff16148061077257506107718161076c6112e2565b611121565b5b6107b1576040517f08c379a00000000000000000000000000000000000000000000000000000000081526004016107a890612bcc565b60405180910390fd5b6107bb83836112ea565b505050565b6107d16107cb6112e2565b826113a3565b610810576040517f08c379a000000000000000000000000000000000000000000000000000000000815260040161080790612c5e565b60405180910390fd5b61081b838383611438565b505050565b60008161082c8161169e565b61086b576040517f08c379a000000000000000000000000000000000000000000000000000000000815260040161086290612cca565b60405180910390fd5b3373ffffffffffffffffffffffffffffffffffffffff1661088b84610a69565b73ffffffffffffffffffffffffffffffffffffffff16146108e1576040517f08c379a00000000000000000000000000000000000000000000000000000000081526004016108d890612d36565b60405180910390fd5b6108ea83610f42565b91506000821161092f576040517f08c379a000000000000000000000000000000000000000000000000000000000815260040161092690612da2565b60405180910390fd5b3373ffffffffffffffffffffffffffffffffffffffff16837fe97cee5a4c0549d3fdc81e322b718ddf0aeb3418ec87dce4f9a7fb28d117c312846040516109769190612682565b60405180910390a3816006600085815260200190815260200160002060008282546109a19190612df1565b925050819055506109db33836109b686610e54565b73ffffffffffffffffffffffffffffffffffffffff1661170a9092919063ffffffff16565b50919050565b6109fc83838360405180602001604052806000815250610fd2565b505050565b60008082610a0e8161169e565b610a4d576040517f08c379a0000000000000000000000000000000000000000000000000000000008152600401610a4490612cca565b60405180910390fd5b610a5684611790565b610a5f856117de565b9250925050915091565b6000806002600084815260200190815260200160002060009054906101000a900473ffffffffffffffffffffffffffffffffffffffff169050600073ffffffffffffffffffffffffffffffffffffffff168173ffffffffffffffffffffffffffffffffffffffff1603610b11576040517f08c379a0000000000000000000000000000000000000000000000000000000008152600401610b0890612e71565b60405180910390fd5b80915050919050565b60008073ffffffffffffffffffffffffffffffffffffffff168273ffffffffffffffffffffffffffffffffffffffff1603610b8a576040517f08c379a0000000000000000000000000000000000000000000000000000000008152600401610b8190612f03565b60405180910390fd5b600360008373ffffffffffffffffffffffffffffffffffffffff1673ffffffffffffffffffffffffffffffffffffffff168152602001908152602001600020549050919050565b600073ffffffffffffffffffffffffffffffffffffffff168473ffffffffffffffffffffffffffffffffffffffff1603610c40576040517f08c379a0000000000000000000000000000000000000000000000000000000008152600401610c3790612f6f565b60405180910390fd5b6000600854905060405180608001604052808373ffffffffffffffffffffffffffffffffffffffff168152602001858152602001426fffffffffffffffffffffffffffffffff168152602001846fffffffffffffffffffffffffffffffff168152506007600083815260200190815260200160002060008201518160000160006101000a81548173ffffffffffffffffffffffffffffffffffffffff021916908373ffffffffffffffffffffffffffffffffffffffff1602179055506020820151816001015560408201518160020160006101000a8154816fffffffffffffffffffffffffffffffff02191690836fffffffffffffffffffffffffffffffff16021790555060608201518160020160106101000a8154816fffffffffffffffffffffffffffffffff02191690836fffffffffffffffffffffffffffffffff16021790555090505060086000815480929190610d9a90612f8f565b9190505550610da9858261182c565b610dde333086610db885610e54565b73ffffffffffffffffffffffffffffffffffffffff16611a05909392919063ffffffff16565b5050505050565b600081610df18161169e565b610e30576040517f08c379a0000000000000000000000000000000000000000000000000000000008152600401610e2790612cca565b60405180910390fd5b610e398361110e565b610e4284611a8e565b610e4c9190612fd7565b915050919050565b600081610e608161169e565b610e9f576040517f08c379a0000000000000000000000000000000000000000000000000000000008152600401610e9690612cca565b60405180910390fd5b610ea883611aae565b915050919050565b606060018054610ebf90612a97565b80601f0160208091040260200160405190810160405280929190818152602001828054610eeb90612a97565b8015610f385780601f10610f0d57610100808354040283529160200191610f38565b820191906000526020600020905b815481529060010190602001808311610f1b57829003601f168201915b5050505050905090565b600081610f4e8161169e565b610f8d576040517f08c379a0000000000000000000000000000000000000000000000000000000008152600401610f8490612cca565b60405180910390fd5b6006600084815260200190815260200160002054610faa8461110e565b610fb49190612fd7565b915050919050565b610fce610fc76112e2565b8383611aee565b5050565b610fe3610fdd6112e2565b836113a3565b611022576040517f08c379a000000000000000000000000000000000000000000000000000000000815260040161101990612c5e565b60405180910390fd5b61102e84848484611c5a565b50505050565b606061103f82611297565b6000611049611cb6565b905060008151116110695760405180602001604052806000815250611094565b8061107384611ccd565b604051602001611084929190613047565b6040516020818303038152906040525b915050919050565b6000826110a88161169e565b6110e7576040517f08c379a00000000000000000000000000000000000000000000000000000000081526004016110de90612cca565b60405180910390fd5b6110f0846117de565b8310611106576110ff84611a8e565b9150611107565b5b5092915050565b600061111a824261109c565b9050919050565b6000600560008473ffffffffffffffffffffffffffffffffffffffff1673ffffffffffffffffffffffffffffffffffffffff16815260200190815260200160002060008373ffffffffffffffffffffffffffffffffffffffff1673ffffffffffffffffffffffffffffffffffffffff16815260200190815260200160002060009054906101000a900460ff16905092915050565b60007f80ac58cd000000000000000000000000000000000000000000000000000000007bffffffffffffffffffffffffffffffffffffffffffffffffffffffff1916827bffffffffffffffffffffffffffffffffffffffffffffffffffffffff1916148061128057507f5b5e139f000000000000000000000000000000000000000000000000000000007bffffffffffffffffffffffffffffffffffffffffffffffffffffffff1916827bffffffffffffffffffffffffffffffffffffffffffffffffffffffff1916145b80611290575061128f82611e2d565b5b9050919050565b6112a08161169e565b6112df576040517f08c379a00000000000000000000000000000000000000000000000000000000081526004016112d690612e71565b60405180910390fd5b50565b600033905090565b816004600083815260200190815260200160002060006101000a81548173ffffffffffffffffffffffffffffffffffffffff021916908373ffffffffffffffffffffffffffffffffffffffff160217905550808273ffffffffffffffffffffffffffffffffffffffff1661135d83610a69565b73ffffffffffffffffffffffffffffffffffffffff167f8c5be1e5ebec7d5bd14f71427d1e84f3dd0314c0f7b2291e5b200ac8c7c3b92560405160405180910390a45050565b6000806113af83610a69565b90508073ffffffffffffffffffffffffffffffffffffffff168473ffffffffffffffffffffffffffffffffffffffff1614806113f157506113f08185611121565b5b8061142f57508373ffffffffffffffffffffffffffffffffffffffff1661141784610663565b73ffffffffffffffffffffffffffffffffffffffff16145b91505092915050565b8273ffffffffffffffffffffffffffffffffffffffff1661145882610a69565b73ffffffffffffffffffffffffffffffffffffffff16146114ae576040517f08c379a00000000000000000000000000000000000000000000000000000000081526004016114a5906130dd565b60405180910390fd5b600073ffffffffffffffffffffffffffffffffffffffff168273ffffffffffffffffffffffffffffffffffffffff160361151d576040517f08c379a00000000000000000000000000000000000000000000000000000000081526004016115149061316f565b60405180910390fd5b611528838383611e97565b6115336000826112ea565b6001600360008573ffffffffffffffffffffffffffffffffffffffff1673ffffffffffffffffffffffffffffffffffffffff16815260200190815260200160002060008282546115839190612fd7565b925050819055506001600360008473ffffffffffffffffffffffffffffffffffffffff1673ffffffffffffffffffffffffffffffffffffffff16815260200190815260200160002060008282546115da9190612df1565b92505081905550816002600083815260200190815260200160002060006101000a81548173ffffffffffffffffffffffffffffffffffffffff021916908373ffffffffffffffffffffffffffffffffffffffff160217905550808273ffffffffffffffffffffffffffffffffffffffff168473ffffffffffffffffffffffffffffffffffffffff167fddf252ad1be2c89b69c2b068fc378daa952ba7f163c4a11628f55a4df523b3ef60405160405180910390a4611699838383611e9c565b505050565b60008073ffffffffffffffffffffffffffffffffffffffff166002600084815260200190815260200160002060009054906101000a900473ffffffffffffffffffffffffffffffffffffffff1673ffffffffffffffffffffffffffffffffffffffff1614159050919050565b61178b8363a9059cbb60e01b848460405160240161172992919061318f565b604051602081830303815290604052907bffffffffffffffffffffffffffffffffffffffffffffffffffffffff19166020820180517bffffffffffffffffffffffffffffffffffffffffffffffffffffffff8381831617835250505050611ea1565b505050565b60006007600083815260200190815260200160002060020160009054906101000a90046fffffffffffffffffffffffffffffffff166fffffffffffffffffffffffffffffffff169050919050565b60006007600083815260200190815260200160002060020160109054906101000a90046fffffffffffffffffffffffffffffffff166fffffffffffffffffffffffffffffffff169050919050565b600073ffffffffffffffffffffffffffffffffffffffff168273ffffffffffffffffffffffffffffffffffffffff160361189b576040517f08c379a000000000000000000000000000000000000000000000000000000000815260040161189290613204565b60405180910390fd5b6118a48161169e565b156118e4576040517f08c379a00000000000000000000000000000000000000000000000000000000081526004016118db90613270565b60405180910390fd5b6118f060008383611e97565b6001600360008473ffffffffffffffffffffffffffffffffffffffff1673ffffffffffffffffffffffffffffffffffffffff16815260200190815260200160002060008282546119409190612df1565b92505081905550816002600083815260200190815260200160002060006101000a81548173ffffffffffffffffffffffffffffffffffffffff021916908373ffffffffffffffffffffffffffffffffffffffff160217905550808273ffffffffffffffffffffffffffffffffffffffff16600073ffffffffffffffffffffffffffffffffffffffff167fddf252ad1be2c89b69c2b068fc378daa952ba7f163c4a11628f55a4df523b3ef60405160405180910390a4611a0160008383611e9c565b5050565b611a88846323b872dd60e01b858585604051602401611a2693929190613290565b604051602081830303815290604052907bffffffffffffffffffffffffffffffffffffffffffffffffffffffff19166020820180517bffffffffffffffffffffffffffffffffffffffffffffffffffffffff8381831617835250505050611ea1565b50505050565b600060076000838152602001908152602001600020600101549050919050565b60006007600083815260200190815260200160002060000160009054906101000a900473ffffffffffffffffffffffffffffffffffffffff169050919050565b8173ffffffffffffffffffffffffffffffffffffffff168373ffffffffffffffffffffffffffffffffffffffff1603611b5c576040517f08c379a0000000000000000000000000000000000000000000000000000000008152600401611b5390613313565b60405180910390fd5b80600560008573ffffffffffffffffffffffffffffffffffffffff1673ffffffffffffffffffffffffffffffffffffffff16815260200190815260200160002060008473ffffffffffffffffffffffffffffffffffffffff1673ffffffffffffffffffffffffffffffffffffffff16815260200190815260200160002060006101000a81548160ff0219169083151502179055508173ffffffffffffffffffffffffffffffffffffffff168373ffffffffffffffffffffffffffffffffffffffff167f17307eab39ab6107e8899845ad3d59bd9653f200f220920489ca2b5937696c3183604051611c4d9190612359565b60405180910390a3505050565b611c65848484611438565b611c7184848484611f68565b611cb0576040517f08c379a0000000000000000000000000000000000000000000000000000000008152600401611ca7906133a5565b60405180910390fd5b50505050565b606060405180602001604052806000815250905090565b606060008203611d14576040518060400160405280600181526020017f30000000000000000000000000000000000000000000000000000000000000008152509050611e28565b600082905060005b60008214611d46578080611d2f90612f8f565b915050600a82611d3f91906133f4565b9150611d1c565b60008167ffffffffffffffff811115611d6257611d6161283a565b5b6040519080825280601f01601f191660200182016040528015611d945781602001600182028036833780820191505090505b5090505b60008514611e2157600182611dad9190612fd7565b9150600a85611dbc9190613425565b6030611dc89190612df1565b60f81b818381518110611dde57611ddd613456565b5b60200101907effffffffffffffffffffffffffffffffffffffffffffffffffffffffffffff1916908160001a905350600a85611e1a91906133f4565b9450611d98565b8093505050505b919050565b60007f01ffc9a7000000000000000000000000000000000000000000000000000000007bffffffffffffffffffffffffffffffffffffffffffffffffffffffff1916827bffffffffffffffffffffffffffffffffffffffffffffffffffffffff1916149050919050565b505050565b505050565b6000611f03826040518060400160405280602081526020017f5361666545524332303a206c6f772d6c6576656c2063616c6c206661696c65648152508573ffffffffffffffffffffffffffffffffffffffff166120ef9092919063ffffffff16565b9050600081511115611f635780806020019051810190611f23919061349a565b611f62576040517f08c379a0000000000000000000000000000000000000000000000000000000008152600401611f5990613539565b60405180910390fd5b5b505050565b6000611f898473ffffffffffffffffffffffffffffffffffffffff16612107565b156120e2578373ffffffffffffffffffffffffffffffffffffffff1663150b7a02611fb26112e2565b8786866040518563ffffffff1660e01b8152600401611fd494939291906135ae565b6020604051808303816000875af192505050801561201057506040513d601f19601f8201168201806040525081019061200d919061360f565b60015b612092573d8060008114612040576040519150601f19603f3d011682016040523d82523d6000602084013e612045565b606091505b50600081510361208a576040517f08c379a0000000000000000000000000000000000000000000000000000000008152600401612081906133a5565b60405180910390fd5b805181602001fd5b63150b7a0260e01b7bffffffffffffffffffffffffffffffffffffffffffffffffffffffff1916817bffffffffffffffffffffffffffffffffffffffffffffffffffffffff1916149150506120e7565b600190505b949350505050565b60606120fe848460008561212a565b90509392505050565b6000808273ffffffffffffffffffffffffffffffffffffffff163b119050919050565b60608247101561216f576040517f08c379a0000000000000000000000000000000000000000000000000000000008152600401612166906136ae565b60405180910390fd5b61217885612107565b6121b7576040517f08c379a00000000000000000000000000000000000000000000000000000000081526004016121ae9061371a565b60405180910390fd5b6000808673ffffffffffffffffffffffffffffffffffffffff1685876040516121e09190613776565b60006040518083038185875af1925050503d806000811461221d576040519150601f19603f3d011682016040523d82523d6000602084013e612222565b606091505b509150915061223282828661223e565b92505050949350505050565b6060831561224e5782905061229e565b6000835111156122615782518084602001fd5b816040517f08c379a00000000000000000000000000000000000000000000000000000000081526004016122959190612565565b60405180910390fd5b9392505050565b6000604051905090565b600080fd5b600080fd5b60007fffffffff0000000000000000000000000000000000000000000000000000000082169050919050565b6122ee816122b9565b81146122f957600080fd5b50565b60008135905061230b816122e5565b92915050565b600060208284031215612327576123266122af565b5b6000612335848285016122fc565b91505092915050565b60008115159050919050565b6123538161233e565b82525050565b600060208201905061236e600083018461234a565b92915050565b6000819050919050565b61238781612374565b811461239257600080fd5b50565b6000813590506123a48161237e565b92915050565b6000602082840312156123c0576123bf6122af565b5b60006123ce84828501612395565b91505092915050565b600073ffffffffffffffffffffffffffffffffffffffff82169050919050565b6000819050919050565b600061241c612417612412846123d7565b6123f7565b6123d7565b9050919050565b600061242e82612401565b9050919050565b600061244082612423565b9050919050565b61245081612435565b82525050565b61245f81612374565b82525050565b60006fffffffffffffffffffffffffffffffff82169050919050565b61248a81612465565b82525050565b60006080820190506124a56000830187612447565b6124b26020830186612456565b6124bf6040830185612481565b6124cc6060830184612481565b95945050505050565b600081519050919050565b600082825260208201905092915050565b60005b8381101561250f5780820151818401526020810190506124f4565b60008484015250505050565b6000601f19601f8301169050919050565b6000612537826124d5565b61254181856124e0565b93506125518185602086016124f1565b61255a8161251b565b840191505092915050565b6000602082019050818103600083015261257f818461252c565b905092915050565b6000612592826123d7565b9050919050565b6125a281612587565b82525050565b60006020820190506125bd6000830184612599565b92915050565b6125cc81612587565b81146125d757600080fd5b50565b6000813590506125e9816125c3565b92915050565b60008060408385031215612606576126056122af565b5b6000612614858286016125da565b925050602061262585828601612395565b9150509250929050565b600080600060608486031215612648576126476122af565b5b6000612656868287016125da565b9350506020612667868287016125da565b925050604061267886828701612395565b9150509250925092565b60006020820190506126976000830184612456565b92915050565b60006040820190506126b26000830185612456565b6126bf6020830184612456565b9392505050565b6000602082840312156126dc576126db6122af565b5b60006126ea848285016125da565b91505092915050565b6126fc81612465565b811461270757600080fd5b50565b600081359050612719816126f3565b92915050565b600061272a82612587565b9050919050565b61273a8161271f565b811461274557600080fd5b50565b60008135905061275781612731565b92915050565b60008060008060808587031215612777576127766122af565b5b6000612785878288016125da565b945050602061279687828801612395565b93505060406127a78782880161270a565b92505060606127b887828801612748565b91505092959194509250565b6127cd8161233e565b81146127d857600080fd5b50565b6000813590506127ea816127c4565b92915050565b60008060408385031215612807576128066122af565b5b6000612815858286016125da565b9250506020612826858286016127db565b9150509250929050565b600080fd5b600080fd5b7f4e487b7100000000000000000000000000000000000000000000000000000000600052604160045260246000fd5b6128728261251b565b810181811067ffffffffffffffff821117156128915761289061283a565b5b80604052505050565b60006128a46122a5565b90506128b08282612869565b919050565b600067ffffffffffffffff8211156128d0576128cf61283a565b5b6128d98261251b565b9050602081019050919050565b82818337600083830152505050565b6000612908612903846128b5565b61289a565b90508281526020810184848401111561292457612923612835565b5b61292f8482856128e6565b509392505050565b600082601f83011261294c5761294b612830565b5b813561295c8482602086016128f5565b91505092915050565b6000806000806080858703121561297f5761297e6122af565b5b600061298d878288016125da565b945050602061299e878288016125da565b93505060406129af87828801612395565b925050606085013567ffffffffffffffff8111156129d0576129cf6122b4565b5b6129dc87828801612937565b91505092959194509250565b600080604083850312156129ff576129fe6122af565b5b6000612a0d85828601612395565b9250506020612a1e85828601612395565b9150509250929050565b60008060408385031215612a3f57612a3e6122af565b5b6000612a4d858286016125da565b9250506020612a5e858286016125da565b9150509250929050565b7f4e487b7100000000000000000000000000000000000000000000000000000000600052602260045260246000fd5b60006002820490506001821680612aaf57607f821691505b602082108103612ac257612ac1612a68565b5b50919050565b7f4552433732313a20617070726f76616c20746f2063757272656e74206f776e6560008201527f7200000000000000000000000000000000000000000000000000000000000000602082015250565b6000612b246021836124e0565b9150612b2f82612ac8565b604082019050919050565b60006020820190508181036000830152612b5381612b17565b9050919050565b7f4552433732313a20617070726f76652063616c6c6572206973206e6f7420746f60008201527f6b656e206f776e6572206e6f7220617070726f76656420666f7220616c6c0000602082015250565b6000612bb6603e836124e0565b9150612bc182612b5a565b604082019050919050565b60006020820190508181036000830152612be581612ba9565b9050919050565b7f4552433732313a2063616c6c6572206973206e6f7420746f6b656e206f776e6560008201527f72206e6f7220617070726f766564000000000000000000000000000000000000602082015250565b6000612c48602e836124e0565b9150612c5382612bec565b604082019050919050565b60006020820190508181036000830152612c7781612c3b565b9050919050565b7f56657374696e674e46543a20696e76616c696420746f6b656e20494400000000600082015250565b6000612cb4601c836124e0565b9150612cbf82612c7e565b602082019050919050565b60006020820190508181036000830152612ce381612ca7565b9050919050565b7f4e6f74206f776e6572206f66204e465400000000000000000000000000000000600082015250565b6000612d206010836124e0565b9150612d2b82612cea565b602082019050919050565b60006020820190508181036000830152612d4f81612d13565b9050919050565b7f56657374696e674e46543a204e6f2070656e64696e67207061796f7574000000600082015250565b6000612d8c601d836124e0565b9150612d9782612d56565b602082019050919050565b60006020820190508181036000830152612dbb81612d7f565b9050919050565b7f4e487b7100000000000000000000000000000000000000000000000000000000600052601160045260246000fd5b6000612dfc82612374565b9150612e0783612374565b9250828201905080821115612e1f57612e1e612dc2565b5b92915050565b7f4552433732313a20696e76616c696420746f6b656e2049440000000000000000600082015250565b6000612e5b6018836124e0565b9150612e6682612e25565b602082019050919050565b60006020820190508181036000830152612e8a81612e4e565b9050919050565b7f4552433732313a2061646472657373207a65726f206973206e6f74206120766160008201527f6c6964206f776e65720000000000000000000000000000000000000000000000602082015250565b6000612eed6029836124e0565b9150612ef882612e91565b604082019050919050565b60006020820190508181036000830152612f1c81612ee0565b9050919050565b7f746f2063616e6e6f742062652061646472657373203000000000000000000000600082015250565b6000612f596016836124e0565b9150612f6482612f23565b602082019050919050565b60006020820190508181036000830152612f8881612f4c565b9050919050565b6000612f9a82612374565b91507fffffffffffffffffffffffffffffffffffffffffffffffffffffffffffffffff8203612fcc57612fcb612dc2565b5b600182019050919050565b6000612fe282612374565b9150612fed83612374565b925082820390508181111561300557613004612dc2565b5b92915050565b600081905092915050565b6000613021826124d5565b61302b818561300b565b935061303b8185602086016124f1565b80840191505092915050565b60006130538285613016565b915061305f8284613016565b91508190509392505050565b7f4552433732313a207472616e736665722066726f6d20696e636f72726563742060008201527f6f776e6572000000000000000000000000000000000000000000000000000000602082015250565b60006130c76025836124e0565b91506130d28261306b565b604082019050919050565b600060208201905081810360008301526130f6816130ba565b9050919050565b7f4552433732313a207472616e7366657220746f20746865207a65726f2061646460008201527f7265737300000000000000000000000000000000000000000000000000000000602082015250565b60006131596024836124e0565b9150613164826130fd565b604082019050919050565b600060208201905081810360008301526131888161314c565b9050919050565b60006040820190506131a46000830185612599565b6131b16020830184612456565b9392505050565b7f4552433732313a206d696e7420746f20746865207a65726f2061646472657373600082015250565b60006131ee6020836124e0565b91506131f9826131b8565b602082019050919050565b6000602082019050818103600083015261321d816131e1565b9050919050565b7f4552433732313a20746f6b656e20616c7265616479206d696e74656400000000600082015250565b600061325a601c836124e0565b915061326582613224565b602082019050919050565b600060208201905081810360008301526132898161324d565b9050919050565b60006060820190506132a56000830186612599565b6132b26020830185612599565b6132bf6040830184612456565b949350505050565b7f4552433732313a20617070726f766520746f2063616c6c657200000000000000600082015250565b60006132fd6019836124e0565b9150613308826132c7565b602082019050919050565b6000602082019050818103600083015261332c816132f0565b9050919050565b7f4552433732313a207472616e7366657220746f206e6f6e20455243373231526560008201527f63656976657220696d706c656d656e7465720000000000000000000000000000602082015250565b600061338f6032836124e0565b915061339a82613333565b604082019050919050565b600060208201905081810360008301526133be81613382565b9050919050565b7f4e487b7100000000000000000000000000000000000000000000000000000000600052601260045260246000fd5b60006133ff82612374565b915061340a83612374565b92508261341a576134196133c5565b5b828204905092915050565b600061343082612374565b915061343b83612374565b92508261344b5761344a6133c5565b5b828206905092915050565b7f4e487b7100000000000000000000000000000000000000000000000000000000600052603260045260246000fd5b600081519050613494816127c4565b92915050565b6000602082840312156134b0576134af6122af565b5b60006134be84828501613485565b91505092915050565b7f5361666545524332303a204552433230206f7065726174696f6e20646964206e60008201527f6f74207375636365656400000000000000000000000000000000000000000000602082015250565b6000613523602a836124e0565b915061352e826134c7565b604082019050919050565b6000602082019050818103600083015261355281613516565b9050919050565b600081519050919050565b600082825260208201905092915050565b600061358082613559565b61358a8185613564565b935061359a8185602086016124f1565b6135a38161251b565b840191505092915050565b60006080820190506135c36000830187612599565b6135d06020830186612599565b6135dd6040830185612456565b81810360608301526135ef8184613575565b905095945050505050565b600081519050613609816122e5565b92915050565b600060208284031215613625576136246122af565b5b6000613633848285016135fa565b91505092915050565b7f416464726573733a20696e73756666696369656e742062616c616e636520666f60008201527f722063616c6c0000000000000000000000000000000000000000000000000000602082015250565b60006136986026836124e0565b91506136a38261363c565b604082019050919050565b600060208201905081810360008301526136c78161368b565b9050919050565b7f416464726573733a2063616c6c20746f206e6f6e2d636f6e7472616374000000600082015250565b6000613704601d836124e0565b915061370f826136ce565b602082019050919050565b60006020820190508181036000830152613733816136f7565b9050919050565b600081905092915050565b600061375082613559565b61375a818561373a565b935061376a8185602086016124f1565b80840191505092915050565b60006137828284613745565b91508190509291505056fea26469706673582212204b10c347ef9d509dc8d6575f39bcb17b344a99016d4e77cb3b0a7d813fc3a0b164736f6c63430008110033",
  "linkReferences": {},
  "deployedLinkReferences": {}
}